{
	"contracts/token.sol": {
		"Token": {
			"abi": [
				{
					"inputs": [],
					"stateMutability": "nonpayable",
					"type": "constructor"
				},
				{
					"anonymous": false,
					"inputs": [
						{
							"indexed": true,
							"internalType": "address",
							"name": "owner",
							"type": "address"
						},
						{
							"indexed": true,
							"internalType": "address",
							"name": "spender",
							"type": "address"
						},
						{
							"indexed": false,
							"internalType": "uint256",
							"name": "value",
							"type": "uint256"
						}
					],
					"name": "Approval",
					"type": "event"
				},
				{
					"anonymous": false,
					"inputs": [
						{
							"indexed": true,
							"internalType": "address",
							"name": "from",
							"type": "address"
						},
						{
							"indexed": true,
							"internalType": "address",
							"name": "to",
							"type": "address"
						},
						{
							"indexed": false,
							"internalType": "uint256",
							"name": "value",
							"type": "uint256"
						}
					],
					"name": "Transfer",
					"type": "event"
				},
				{
					"inputs": [
						{
							"internalType": "address",
							"name": "",
							"type": "address"
						},
						{
							"internalType": "address",
							"name": "",
							"type": "address"
						}
					],
					"name": "allowance",
					"outputs": [
						{
							"internalType": "uint256",
							"name": "",
							"type": "uint256"
						}
					],
					"stateMutability": "view",
					"type": "function"
				},
				{
					"inputs": [
						{
							"internalType": "address",
							"name": "spender",
							"type": "address"
						},
						{
							"internalType": "uint256",
							"name": "value",
							"type": "uint256"
						}
					],
					"name": "approve",
					"outputs": [
						{
							"internalType": "bool",
							"name": "",
							"type": "bool"
						}
					],
					"stateMutability": "nonpayable",
					"type": "function"
				},
				{
					"inputs": [
						{
							"internalType": "address",
							"name": "owner",
							"type": "address"
						}
					],
					"name": "balanceOf",
					"outputs": [
						{
							"internalType": "uint256",
							"name": "",
							"type": "uint256"
						}
					],
					"stateMutability": "view",
					"type": "function"
				},
				{
					"inputs": [
						{
							"internalType": "address",
							"name": "",
							"type": "address"
						}
					],
					"name": "balances",
					"outputs": [
						{
							"internalType": "uint256",
							"name": "",
							"type": "uint256"
						}
					],
					"stateMutability": "view",
					"type": "function"
				},
				{
					"inputs": [],
					"name": "decimals",
					"outputs": [
						{
							"internalType": "uint8",
							"name": "",
							"type": "uint8"
						}
					],
					"stateMutability": "view",
					"type": "function"
				},
				{
					"inputs": [
						{
							"internalType": "address",
							"name": "spender",
							"type": "address"
						},
						{
							"internalType": "uint256",
							"name": "subtractedValue",
							"type": "uint256"
						}
					],
					"name": "decreaseAllowance",
					"outputs": [
						{
							"internalType": "bool",
							"name": "",
							"type": "bool"
						}
					],
					"stateMutability": "nonpayable",
					"type": "function"
				},
				{
					"inputs": [
						{
							"internalType": "address",
							"name": "spender",
							"type": "address"
						},
						{
							"internalType": "uint256",
							"name": "addedValue",
							"type": "uint256"
						}
					],
					"name": "increaseAllowance",
					"outputs": [
						{
							"internalType": "bool",
							"name": "",
							"type": "bool"
						}
					],
					"stateMutability": "nonpayable",
					"type": "function"
				},
				{
					"inputs": [],
					"name": "name",
					"outputs": [
						{
							"internalType": "string",
							"name": "",
							"type": "string"
						}
					],
					"stateMutability": "view",
					"type": "function"
				},
				{
					"inputs": [],
					"name": "symbol",
					"outputs": [
						{
							"internalType": "string",
							"name": "",
							"type": "string"
						}
					],
					"stateMutability": "view",
					"type": "function"
				},
				{
					"inputs": [],
					"name": "totalSupply",
					"outputs": [
						{
							"internalType": "uint256",
							"name": "",
							"type": "uint256"
						}
					],
					"stateMutability": "view",
					"type": "function"
				},
				{
					"inputs": [
						{
							"internalType": "address",
							"name": "to",
							"type": "address"
						},
						{
							"internalType": "uint256",
							"name": "value",
							"type": "uint256"
						}
					],
					"name": "transfer",
					"outputs": [
						{
							"internalType": "bool",
							"name": "",
							"type": "bool"
						}
					],
					"stateMutability": "nonpayable",
					"type": "function"
				},
				{
					"inputs": [
						{
							"internalType": "address",
							"name": "from",
							"type": "address"
						},
						{
							"internalType": "address",
							"name": "to",
							"type": "address"
						},
						{
							"internalType": "uint256",
							"name": "value",
							"type": "uint256"
						}
					],
					"name": "transferFrom",
					"outputs": [
						{
							"internalType": "bool",
							"name": "",
							"type": "bool"
						}
					],
					"stateMutability": "nonpayable",
					"type": "function"
				}
			],
			"devdoc": {
				"kind": "dev",
				"methods": {},
				"version": 1
			},
			"evm": {
				"assembly": "    /* \"contracts/token.sol\":217:233  10000 * 10 ** 18 */\n  0x021e19e0c9bab2400000\n    /* \"contracts/token.sol\":191:233  uint public totalSupply = 10000 * 10 ** 18 */\n  0x02\n  sstore\n    /* \"contracts/token.sol\":265:294  string public name = \"Selina\" */\n  0xc0\n    /* \"contracts/token.sol\":57:2953  contract Token {... */\n  0x40\n    /* \"contracts/token.sol\":265:294  string public name = \"Selina\" */\n  mstore\n  0x06\n    /* \"contracts/token.sol\":57:2953  contract Token {... */\n  0x80\n    /* \"contracts/token.sol\":265:294  string public name = \"Selina\" */\n  swap1\n  dup2\n  mstore\n  mstore(0xa0, shl(0xd0, 0x53656c696e61))\n  0x03\n  swap1\n  tag_1\n  swap1\n  dup3\n  tag_2\n  jump\t// in\ntag_1:\n  pop\n    /* \"contracts/token.sol\":314:341  string public symbol = \"SE\" */\n  0x40\n  dup1\n  mload\n  dup1\n  dup3\n  add\n  swap1\n  swap2\n  mstore\n  0x02\n  dup2\n  mstore\n  shl(0xf0, 0x5345)\n  0x20\n  dup3\n  add\n  mstore\n  0x04\n  swap1\n  tag_3\n  swap1\n  dup3\n  tag_2\n  jump\t// in\ntag_3:\n  pop\n    /* \"contracts/token.sol\":363:389  uint8 public decimals = 18 */\n  0x05\n  dup1\n  sload\n  not(0xff)\n  and\n    /* \"contracts/token.sol\":387:389  18 */\n  0x12\n    /* \"contracts/token.sol\":363:389  uint8 public decimals = 18 */\n  or\n  swap1\n  sstore\n    /* \"contracts/token.sol\":595:704  constructor() {... */\n  callvalue\n  dup1\n  iszero\n  tag_4\n  jumpi\n  0x00\n  dup1\n  revert\ntag_4:\n  pop\n    /* \"contracts/token.sol\":642:653  totalSupply */\n  sload(0x02)\n    /* \"contracts/token.sol\":628:638  msg.sender */\n  caller\n    /* \"contracts/token.sol\":619:627  balances */\n  0x00\n    /* \"contracts/token.sol\":619:639  balances[msg.sender] */\n  swap1\n  dup2\n  mstore\n  0x20\n  dup2\n  swap1\n  mstore\n  0x40\n  swap1\n  keccak256\n    /* \"contracts/token.sol\":619:653  balances[msg.sender] = totalSupply */\n  sstore\n    /* \"contracts/token.sol\":57:2953  contract Token {... */\n  jump(tag_13)\n    /* \"#utility.yul\":14:141   */\ntag_8:\n    /* \"#utility.yul\":75:85   */\n  0x4e487b71\n    /* \"#utility.yul\":70:73   */\n  0xe0\n    /* \"#utility.yul\":66:86   */\n  shl\n    /* \"#utility.yul\":63:64   */\n  0x00\n    /* \"#utility.yul\":56:87   */\n  mstore\n    /* \"#utility.yul\":106:110   */\n  0x41\n    /* \"#utility.yul\":103:104   */\n  0x04\n    /* \"#utility.yul\":96:111   */\n  mstore\n    /* \"#utility.yul\":130:134   */\n  0x24\n    /* \"#utility.yul\":127:128   */\n  0x00\n    /* \"#utility.yul\":120:135   */\n  revert\n    /* \"#utility.yul\":146:526   */\ntag_9:\n    /* \"#utility.yul\":225:226   */\n  0x01\n    /* \"#utility.yul\":221:233   */\n  dup2\n  dup2\n  shr\n  swap1\n    /* \"#utility.yul\":268:280   */\n  dup3\n  and\n  dup1\n    /* \"#utility.yul\":289:350   */\n  tag_16\n  jumpi\n    /* \"#utility.yul\":343:347   */\n  0x7f\n    /* \"#utility.yul\":335:341   */\n  dup3\n    /* \"#utility.yul\":331:348   */\n  and\n    /* \"#utility.yul\":321:348   */\n  swap2\n  pop\n    /* \"#utility.yul\":289:350   */\ntag_16:\n    /* \"#utility.yul\":396:398   */\n  0x20\n    /* \"#utility.yul\":388:394   */\n  dup3\n    /* \"#utility.yul\":385:399   */\n  lt\n    /* \"#utility.yul\":365:383   */\n  dup2\n    /* \"#utility.yul\":362:400   */\n  sub\n    /* \"#utility.yul\":359:520   */\n  tag_17\n  jumpi\n    /* \"#utility.yul\":442:452   */\n  0x4e487b71\n    /* \"#utility.yul\":437:440   */\n  0xe0\n    /* \"#utility.yul\":433:453   */\n  shl\n    /* \"#utility.yul\":430:431   */\n  0x00\n    /* \"#utility.yul\":423:454   */\n  mstore\n    /* \"#utility.yul\":477:481   */\n  0x22\n    /* \"#utility.yul\":474:475   */\n  0x04\n    /* \"#utility.yul\":467:482   */\n  mstore\n    /* \"#utility.yul\":505:509   */\n  0x24\n    /* \"#utility.yul\":502:503   */\n  0x00\n    /* \"#utility.yul\":495:510   */\n  revert\n    /* \"#utility.yul\":359:520   */\ntag_17:\n  pop\n    /* \"#utility.yul\":146:526   */\n  swap2\n  swap1\n  pop\n  jump\t// out\n    /* \"#utility.yul\":657:1175   */\ntag_11:\n    /* \"#utility.yul\":759:761   */\n  0x1f\n    /* \"#utility.yul\":754:757   */\n  dup3\n    /* \"#utility.yul\":751:762   */\n  gt\n    /* \"#utility.yul\":748:1169   */\n  iszero\n  tag_20\n  jumpi\n    /* \"#utility.yul\":795:800   */\n  dup1\n    /* \"#utility.yul\":792:793   */\n  0x00\n    /* \"#utility.yul\":785:801   */\n  mstore\n    /* \"#utility.yul\":839:843   */\n  0x20\n    /* \"#utility.yul\":836:837   */\n  0x00\n    /* \"#utility.yul\":826:844   */\n  keccak256\n    /* \"#utility.yul\":909:911   */\n  0x1f\n    /* \"#utility.yul\":897:907   */\n  dup5\n    /* \"#utility.yul\":893:912   */\n  add\n    /* \"#utility.yul\":890:891   */\n  0x05\n    /* \"#utility.yul\":886:913   */\n  shr\n    /* \"#utility.yul\":880:884   */\n  dup2\n    /* \"#utility.yul\":876:914   */\n  add\n    /* \"#utility.yul\":945:949   */\n  0x20\n    /* \"#utility.yul\":933:943   */\n  dup6\n    /* \"#utility.yul\":930:950   */\n  lt\n    /* \"#utility.yul\":927:974   */\n  iszero\n  tag_21\n  jumpi\n  pop\n    /* \"#utility.yul\":968:972   */\n  dup1\n    /* \"#utility.yul\":927:974   */\ntag_21:\n    /* \"#utility.yul\":1023:1025   */\n  0x1f\n    /* \"#utility.yul\":1018:1021   */\n  dup5\n    /* \"#utility.yul\":1014:1026   */\n  add\n    /* \"#utility.yul\":1011:1012   */\n  0x05\n    /* \"#utility.yul\":1007:1027   */\n  shr\n    /* \"#utility.yul\":1001:1005   */\n  dup3\n    /* \"#utility.yul\":997:1028   */\n  add\n    /* \"#utility.yul\":987:1028   */\n  swap2\n  pop\n    /* \"#utility.yul\":1078:1159   */\ntag_22:\n    /* \"#utility.yul\":1096:1098   */\n  dup2\n    /* \"#utility.yul\":1089:1094   */\n  dup2\n    /* \"#utility.yul\":1086:1099   */\n  lt\n    /* \"#utility.yul\":1078:1159   */\n  iszero\n  tag_24\n  jumpi\n    /* \"#utility.yul\":1155:1156   */\n  0x00\n    /* \"#utility.yul\":1141:1157   */\n  dup2\n  sstore\n    /* \"#utility.yul\":1122:1123   */\n  0x01\n    /* \"#utility.yul\":1111:1124   */\n  add\n    /* \"#utility.yul\":1078:1159   */\n  jump(tag_22)\ntag_24:\n    /* \"#utility.yul\":1082:1085   */\n  pop\n  pop\n    /* \"#utility.yul\":748:1169   */\ntag_20:\n    /* \"#utility.yul\":657:1175   */\n  pop\n  pop\n  pop\n  jump\t// out\n    /* \"#utility.yul\":1351:2696   */\ntag_2:\n    /* \"#utility.yul\":1471:1481   */\n  dup2\n  mload\n  sub(shl(0x40, 0x01), 0x01)\n    /* \"#utility.yul\":1493:1523   */\n  dup2\n  gt\n    /* \"#utility.yul\":1490:1546   */\n  iszero\n  tag_28\n  jumpi\n    /* \"#utility.yul\":1526:1544   */\n  tag_28\n  tag_8\n  jump\t// in\ntag_28:\n    /* \"#utility.yul\":1555:1652   */\n  tag_29\n    /* \"#utility.yul\":1645:1651   */\n  dup2\n    /* \"#utility.yul\":1605:1643   */\n  tag_30\n    /* \"#utility.yul\":1637:1641   */\n  dup5\n    /* \"#utility.yul\":1631:1642   */\n  sload\n    /* \"#utility.yul\":1605:1643   */\n  tag_9\n  jump\t// in\ntag_30:\n    /* \"#utility.yul\":1599:1603   */\n  dup5\n    /* \"#utility.yul\":1555:1652   */\n  tag_11\n  jump\t// in\ntag_29:\n    /* \"#utility.yul\":1707:1711   */\n  0x20\n  dup1\n    /* \"#utility.yul\":1764:1766   */\n  0x1f\n    /* \"#utility.yul\":1753:1767   */\n  dup4\n  gt\n    /* \"#utility.yul\":1781:1782   */\n  0x01\n    /* \"#utility.yul\":1776:2439   */\n  dup2\n  eq\n  tag_32\n  jumpi\n    /* \"#utility.yul\":2483:2484   */\n  0x00\n    /* \"#utility.yul\":2500:2506   */\n  dup5\n    /* \"#utility.yul\":2497:2586   */\n  iszero\n  tag_33\n  jumpi\n  pop\n    /* \"#utility.yul\":2552:2571   */\n  dup6\n  dup4\n  add\n    /* \"#utility.yul\":2546:2572   */\n  mload\n    /* \"#utility.yul\":2497:2586   */\ntag_33:\n  not(0x00)\n    /* \"#utility.yul\":1308:1309   */\n  0x03\n    /* \"#utility.yul\":1304:1315   */\n  dup7\n  swap1\n  shl\n    /* \"#utility.yul\":1300:1324   */\n  shr\n    /* \"#utility.yul\":1296:1325   */\n  not\n    /* \"#utility.yul\":1286:1326   */\n  and\n    /* \"#utility.yul\":1332:1333   */\n  0x01\n    /* \"#utility.yul\":1328:1339   */\n  dup6\n  swap1\n  shl\n    /* \"#utility.yul\":1283:1340   */\n  or\n    /* \"#utility.yul\":2599:2680   */\n  dup6\n  sstore\n    /* \"#utility.yul\":1746:2690   */\n  jump(tag_31)\n    /* \"#utility.yul\":1776:2439   */\ntag_32:\n    /* \"#utility.yul\":604:605   */\n  0x00\n    /* \"#utility.yul\":597:611   */\n  dup6\n  dup2\n  mstore\n    /* \"#utility.yul\":641:645   */\n  0x20\n    /* \"#utility.yul\":628:646   */\n  dup2\n  keccak256\n  not(0x1f)\n    /* \"#utility.yul\":1812:1832   */\n  dup7\n  and\n  swap2\n    /* \"#utility.yul\":1930:2166   */\ntag_36:\n    /* \"#utility.yul\":1944:1951   */\n  dup3\n    /* \"#utility.yul\":1941:1942   */\n  dup2\n    /* \"#utility.yul\":1938:1952   */\n  lt\n    /* \"#utility.yul\":1930:2166   */\n  iszero\n  tag_38\n  jumpi\n    /* \"#utility.yul\":2033:2052   */\n  dup9\n  dup7\n  add\n    /* \"#utility.yul\":2027:2053   */\n  mload\n    /* \"#utility.yul\":2012:2054   */\n  dup3\n  sstore\n    /* \"#utility.yul\":2125:2152   */\n  swap5\n  dup5\n  add\n  swap5\n    /* \"#utility.yul\":2093:2094   */\n  0x01\n    /* \"#utility.yul\":2081:2095   */\n  swap1\n  swap2\n  add\n  swap1\n    /* \"#utility.yul\":1960:1979   */\n  dup5\n  add\n    /* \"#utility.yul\":1930:2166   */\n  jump(tag_36)\ntag_38:\n    /* \"#utility.yul\":1934:1937   */\n  pop\n    /* \"#utility.yul\":2194:2200   */\n  dup6\n    /* \"#utility.yul\":2185:2192   */\n  dup3\n    /* \"#utility.yul\":2182:2201   */\n  lt\n    /* \"#utility.yul\":2179:2380   */\n  iszero\n  tag_39\n  jumpi\n    /* \"#utility.yul\":2255:2274   */\n  dup8\n  dup6\n  add\n    /* \"#utility.yul\":2249:2275   */\n  mload\n  not(0x00)\n    /* \"#utility.yul\":2338:2339   */\n  0x03\n    /* \"#utility.yul\":2334:2348   */\n  dup9\n  swap1\n  shl\n    /* \"#utility.yul\":2350:2353   */\n  0xf8\n    /* \"#utility.yul\":2330:2354   */\n  and\n    /* \"#utility.yul\":2326:2363   */\n  shr\n    /* \"#utility.yul\":2322:2364   */\n  not\n    /* \"#utility.yul\":2307:2365   */\n  and\n    /* \"#utility.yul\":2292:2366   */\n  dup2\n  sstore\n    /* \"#utility.yul\":2179:2380   */\ntag_39:\n  pop\n  pop\n    /* \"#utility.yul\":2426:2427   */\n  0x01\n    /* \"#utility.yul\":2417:2423   */\n  dup5\n    /* \"#utility.yul\":2414:2415   */\n  0x01\n    /* \"#utility.yul\":2410:2424   */\n  shl\n    /* \"#utility.yul\":2406:2428   */\n  add\n    /* \"#utility.yul\":2400:2404   */\n  dup6\n    /* \"#utility.yul\":2393:2429   */\n  sstore\n    /* \"#utility.yul\":1746:2690   */\ntag_31:\n  pop\n  pop\n  pop\n  pop\n    /* \"#utility.yul\":1351:2696   */\n  pop\n  pop\n  jump\t// out\ntag_13:\n    /* \"contracts/token.sol\":57:2953  contract Token {... */\n  dataSize(sub_0)\n  dup1\n  dataOffset(sub_0)\n  0x00\n  codecopy\n  0x00\n  return\nstop\n\nsub_0: assembly {\n        /* \"contracts/token.sol\":57:2953  contract Token {... */\n      mstore(0x40, 0x80)\n      callvalue\n      dup1\n      iszero\n      tag_1\n      jumpi\n      0x00\n      dup1\n      revert\n    tag_1:\n      pop\n      jumpi(tag_2, lt(calldatasize, 0x04))\n      shr(0xe0, calldataload(0x00))\n      dup1\n      0x39509351\n      gt\n      tag_15\n      jumpi\n      dup1\n      0x39509351\n      eq\n      tag_9\n      jumpi\n      dup1\n      0x70a08231\n      eq\n      tag_10\n      jumpi\n      dup1\n      0x95d89b41\n      eq\n      tag_11\n      jumpi\n      dup1\n      0xa457c2d7\n      eq\n      tag_12\n      jumpi\n      dup1\n      0xa9059cbb\n      eq\n      tag_13\n      jumpi\n      dup1\n      0xdd62ed3e\n      eq\n      tag_14\n      jumpi\n      0x00\n      dup1\n      revert\n    tag_15:\n      dup1\n      0x06fdde03\n      eq\n      tag_3\n      jumpi\n      dup1\n      0x095ea7b3\n      eq\n      tag_4\n      jumpi\n      dup1\n      0x18160ddd\n      eq\n      tag_5\n      jumpi\n      dup1\n      0x23b872dd\n      eq\n      tag_6\n      jumpi\n      dup1\n      0x27e235e3\n      eq\n      tag_7\n      jumpi\n      dup1\n      0x313ce567\n      eq\n      tag_8\n      jumpi\n    tag_2:\n      0x00\n      dup1\n      revert\n        /* \"contracts/token.sol\":265:294  string public name = \"Selina\" */\n    tag_3:\n      tag_16\n      tag_17\n      jump\t// in\n    tag_16:\n      mload(0x40)\n      tag_18\n      swap2\n      swap1\n      tag_19\n      jump\t// in\n    tag_18:\n      mload(0x40)\n      dup1\n      swap2\n      sub\n      swap1\n      return\n        /* \"contracts/token.sol\":2024:2219  function approve(address spender, uint value) public returns (bool) {... */\n    tag_4:\n      tag_20\n      tag_21\n      calldatasize\n      0x04\n      tag_22\n      jump\t// in\n    tag_21:\n      tag_23\n      jump\t// in\n    tag_20:\n      mload(0x40)\n        /* \"#utility.yul\":1039:1053   */\n      swap1\n      iszero\n        /* \"#utility.yul\":1032:1054   */\n      iszero\n        /* \"#utility.yul\":1014:1055   */\n      dup2\n      mstore\n        /* \"#utility.yul\":1002:1004   */\n      0x20\n        /* \"#utility.yul\":987:1005   */\n      add\n        /* \"contracts/token.sol\":2024:2219  function approve(address spender, uint value) public returns (bool) {... */\n      tag_18\n        /* \"#utility.yul\":874:1061   */\n      jump\n        /* \"contracts/token.sol\":191:233  uint public totalSupply = 10000 * 10 ** 18 */\n    tag_5:\n      tag_26\n      sload(0x02)\n      dup2\n      jump\n    tag_26:\n      mload(0x40)\n        /* \"#utility.yul\":1212:1237   */\n      swap1\n      dup2\n      mstore\n        /* \"#utility.yul\":1200:1202   */\n      0x20\n        /* \"#utility.yul\":1185:1203   */\n      add\n        /* \"contracts/token.sol\":191:233  uint public totalSupply = 10000 * 10 ** 18 */\n      tag_18\n        /* \"#utility.yul\":1066:1243   */\n      jump\n        /* \"contracts/token.sol\":1358:1953  function transferFrom(address from, address to, uint value) public returns(bool) {... */\n    tag_6:\n      tag_20\n      tag_31\n      calldatasize\n      0x04\n      tag_32\n      jump\t// in\n    tag_31:\n      tag_33\n      jump\t// in\n        /* \"contracts/token.sol\":78:118  mapping(address => uint) public balances */\n    tag_7:\n      tag_26\n      tag_36\n      calldatasize\n      0x04\n      tag_37\n      jump\t// in\n    tag_36:\n      0x00\n      0x20\n      dup2\n      swap1\n      mstore\n      swap1\n      dup2\n      mstore\n      0x40\n      swap1\n      keccak256\n      sload\n      dup2\n      jump\n        /* \"contracts/token.sol\":363:389  uint8 public decimals = 18 */\n    tag_8:\n      sload(0x05)\n      tag_40\n      swap1\n      0xff\n      and\n      dup2\n      jump\n    tag_40:\n      mload(0x40)\n        /* \"#utility.yul\":1944:1948   */\n      0xff\n        /* \"#utility.yul\":1932:1949   */\n      swap1\n      swap2\n      and\n        /* \"#utility.yul\":1914:1950   */\n      dup2\n      mstore\n        /* \"#utility.yul\":1902:1904   */\n      0x20\n        /* \"#utility.yul\":1887:1905   */\n      add\n        /* \"contracts/token.sol\":363:389  uint8 public decimals = 18 */\n      tag_18\n        /* \"#utility.yul\":1772:1956   */\n      jump\n        /* \"contracts/token.sol\":2263:2504  function increaseAllowance(address spender, uint addedValue) public returns (bool) {... */\n    tag_9:\n      tag_20\n      tag_45\n      calldatasize\n      0x04\n      tag_22\n      jump\t// in\n    tag_45:\n      tag_46\n      jump\t// in\n        /* \"contracts/token.sol\":759:858  function balanceOf(address owner) public view returns(uint) {... */\n    tag_10:\n      tag_26\n      tag_49\n      calldatasize\n      0x04\n      tag_37\n      jump\t// in\n    tag_49:\n      sub(shl(0xa0, 0x01), 0x01)\n        /* \"contracts/token.sol\":836:851  balances[owner] */\n      and\n        /* \"contracts/token.sol\":813:817  uint */\n      0x00\n        /* \"contracts/token.sol\":836:851  balances[owner] */\n      swap1\n      dup2\n      mstore\n      0x20\n      dup2\n      swap1\n      mstore\n      0x40\n      swap1\n      keccak256\n      sload\n      swap1\n        /* \"contracts/token.sol\":759:858  function balanceOf(address owner) public view returns(uint) {... */\n      jump\n        /* \"contracts/token.sol\":314:341  string public symbol = \"SE\" */\n    tag_11:\n      tag_16\n      tag_53\n      jump\t// in\n        /* \"contracts/token.sol\":2548:2951  function decreaseAllowance(address spender, uint subtractedValue) public returns (bool) {... */\n    tag_12:\n      tag_20\n      tag_56\n      calldatasize\n      0x04\n      tag_22\n      jump\t// in\n    tag_56:\n      tag_57\n      jump\t// in\n        /* \"contracts/token.sol\":899:1275  function transfer(address to, uint value) public returns(bool) {... */\n    tag_13:\n      tag_20\n      tag_60\n      calldatasize\n      0x04\n      tag_22\n      jump\t// in\n    tag_60:\n      tag_61\n      jump\t// in\n        /* \"contracts/token.sol\":124:185  mapping(address => mapping(address => uint)) public allowance */\n    tag_14:\n      tag_26\n      tag_64\n      calldatasize\n      0x04\n      tag_65\n      jump\t// in\n    tag_64:\n      0x01\n      0x20\n      swap1\n      dup2\n      mstore\n      0x00\n      swap3\n      dup4\n      mstore\n      0x40\n      dup1\n      dup5\n      keccak256\n      swap1\n      swap2\n      mstore\n      swap1\n      dup3\n      mstore\n      swap1\n      keccak256\n      sload\n      dup2\n      jump\n        /* \"contracts/token.sol\":265:294  string public name = \"Selina\" */\n    tag_17:\n      0x03\n      dup1\n      sload\n      tag_68\n      swap1\n      tag_69\n      jump\t// in\n    tag_68:\n      dup1\n      0x1f\n      add\n      0x20\n      dup1\n      swap2\n      div\n      mul\n      0x20\n      add\n      mload(0x40)\n      swap1\n      dup2\n      add\n      0x40\n      mstore\n      dup1\n      swap3\n      swap2\n      swap1\n      dup2\n      dup2\n      mstore\n      0x20\n      add\n      dup3\n      dup1\n      sload\n      tag_70\n      swap1\n      tag_69\n      jump\t// in\n    tag_70:\n      dup1\n      iszero\n      tag_71\n      jumpi\n      dup1\n      0x1f\n      lt\n      tag_72\n      jumpi\n      0x0100\n      dup1\n      dup4\n      sload\n      div\n      mul\n      dup4\n      mstore\n      swap2\n      0x20\n      add\n      swap2\n      jump(tag_71)\n    tag_72:\n      dup3\n      add\n      swap2\n      swap1\n      0x00\n      mstore\n      keccak256(0x00, 0x20)\n      swap1\n    tag_73:\n      dup2\n      sload\n      dup2\n      mstore\n      swap1\n      0x01\n      add\n      swap1\n      0x20\n      add\n      dup1\n      dup4\n      gt\n      tag_73\n      jumpi\n      dup3\n      swap1\n      sub\n      0x1f\n      and\n      dup3\n      add\n      swap2\n    tag_71:\n      pop\n      pop\n      pop\n      pop\n      pop\n      dup2\n      jump\t// out\n        /* \"contracts/token.sol\":2024:2219  function approve(address spender, uint value) public returns (bool) {... */\n    tag_23:\n        /* \"contracts/token.sol\":2112:2122  msg.sender */\n      caller\n        /* \"contracts/token.sol\":2086:2090  bool */\n      0x00\n        /* \"contracts/token.sol\":2102:2123  allowance[msg.sender] */\n      dup2\n      dup2\n      mstore\n        /* \"contracts/token.sol\":2102:2111  allowance */\n      0x01\n        /* \"contracts/token.sol\":2102:2123  allowance[msg.sender] */\n      0x20\n      swap1\n      dup2\n      mstore\n      0x40\n      dup1\n      dup4\n      keccak256\n      sub(shl(0xa0, 0x01), 0x01)\n        /* \"contracts/token.sol\":2102:2132  allowance[msg.sender][spender] */\n      dup8\n      and\n      dup1\n      dup6\n      mstore\n      swap3\n      mstore\n      dup1\n      dup4\n      keccak256\n        /* \"contracts/token.sol\":2102:2140  allowance[msg.sender][spender] = value */\n      dup6\n      swap1\n      sstore\n        /* \"contracts/token.sol\":2155:2191  Approval(msg.sender, spender, value) */\n      mload\n        /* \"contracts/token.sol\":2086:2090  bool */\n      swap2\n      swap3\n        /* \"contracts/token.sol\":2102:2132  allowance[msg.sender][spender] */\n      swap1\n      swap2\n        /* \"contracts/token.sol\":2155:2191  Approval(msg.sender, spender, value) */\n      0x8c5be1e5ebec7d5bd14f71427d1e84f3dd0314c0f7b2291e5b200ac8c7c3b925\n      swap1\n      tag_75\n      swap1\n        /* \"contracts/token.sol\":2135:2140  value */\n      dup7\n        /* \"#utility.yul\":1212:1237   */\n      dup2\n      mstore\n        /* \"#utility.yul\":1200:1202   */\n      0x20\n        /* \"#utility.yul\":1185:1203   */\n      add\n      swap1\n        /* \"#utility.yul\":1066:1243   */\n      jump\n        /* \"contracts/token.sol\":2155:2191  Approval(msg.sender, spender, value) */\n    tag_75:\n      mload(0x40)\n      dup1\n      swap2\n      sub\n      swap1\n      log3\n      pop\n        /* \"contracts/token.sol\":2208:2212  true */\n      0x01\n        /* \"contracts/token.sol\":2024:2219  function approve(address spender, uint value) public returns (bool) {... */\n    tag_74:\n      swap3\n      swap2\n      pop\n      pop\n      jump\t// out\n        /* \"contracts/token.sol\":1358:1953  function transferFrom(address from, address to, uint value) public returns(bool) {... */\n    tag_33:\n        /* \"contracts/token.sol\":1433:1437  bool */\n      0x00\n      sub(shl(0xa0, 0x01), 0x01)\n        /* \"contracts/token.sol\":1457:1475  from != address(0) */\n      dup5\n      and\n        /* \"contracts/token.sol\":1449:1494  require(from != address(0), \"Invalid sender\") */\n      tag_77\n      jumpi\n      mload(0x40)\n      shl(0xe5, 0x461bcd)\n      dup2\n      mstore\n        /* \"#utility.yul\":2813:2815   */\n      0x20\n        /* \"contracts/token.sol\":1449:1494  require(from != address(0), \"Invalid sender\") */\n      0x04\n      dup3\n      add\n        /* \"#utility.yul\":2795:2816   */\n      mstore\n        /* \"#utility.yul\":2852:2854   */\n      0x0e\n        /* \"#utility.yul\":2832:2850   */\n      0x24\n      dup3\n      add\n        /* \"#utility.yul\":2825:2855   */\n      mstore\n      shl(0x91, 0x24b73b30b634b21039b2b73232b9)\n        /* \"#utility.yul\":2871:2889   */\n      0x44\n      dup3\n      add\n        /* \"#utility.yul\":2864:2908   */\n      mstore\n        /* \"#utility.yul\":2925:2943   */\n      0x64\n      add\n        /* \"contracts/token.sol\":1449:1494  require(from != address(0), \"Invalid sender\") */\n    tag_78:\n      mload(0x40)\n      dup1\n      swap2\n      sub\n      swap1\n      revert\n    tag_77:\n      sub(shl(0xa0, 0x01), 0x01)\n        /* \"contracts/token.sol\":1554:1570  to != address(0) */\n      dup4\n      and\n        /* \"contracts/token.sol\":1546:1592  require(to != address(0), \"Invalid recipient\") */\n      tag_80\n      jumpi\n      mload(0x40)\n      shl(0xe5, 0x461bcd)\n      dup2\n      mstore\n        /* \"#utility.yul\":3156:3158   */\n      0x20\n        /* \"contracts/token.sol\":1546:1592  require(to != address(0), \"Invalid recipient\") */\n      0x04\n      dup3\n      add\n        /* \"#utility.yul\":3138:3159   */\n      mstore\n        /* \"#utility.yul\":3195:3197   */\n      0x11\n        /* \"#utility.yul\":3175:3193   */\n      0x24\n      dup3\n      add\n        /* \"#utility.yul\":3168:3198   */\n      mstore\n      shl(0x7a, 0x125b9d985b1a59081c9958da5c1a595b9d)\n        /* \"#utility.yul\":3214:3232   */\n      0x44\n      dup3\n      add\n        /* \"#utility.yul\":3207:3254   */\n      mstore\n        /* \"#utility.yul\":3271:3289   */\n      0x64\n      add\n        /* \"contracts/token.sol\":1546:1592  require(to != address(0), \"Invalid recipient\") */\n      tag_78\n        /* \"#utility.yul\":2954:3295   */\n      jump\n        /* \"contracts/token.sol\":1546:1592  require(to != address(0), \"Invalid recipient\") */\n    tag_80:\n        /* \"contracts/token.sol\":1669:1674  value */\n      dup2\n        /* \"contracts/token.sol\":1650:1665  balanceOf(from) */\n      tag_83\n        /* \"contracts/token.sol\":1660:1664  from */\n      dup6\n      sub(shl(0xa0, 0x01), 0x01)\n        /* \"contracts/token.sol\":836:851  balances[owner] */\n      and\n        /* \"contracts/token.sol\":813:817  uint */\n      0x00\n        /* \"contracts/token.sol\":836:851  balances[owner] */\n      swap1\n      dup2\n      mstore\n      0x20\n      dup2\n      swap1\n      mstore\n      0x40\n      swap1\n      keccak256\n      sload\n      swap1\n        /* \"contracts/token.sol\":759:858  function balanceOf(address owner) public view returns(uint) {... */\n      jump\n        /* \"contracts/token.sol\":1650:1665  balanceOf(from) */\n    tag_83:\n        /* \"contracts/token.sol\":1650:1674  balanceOf(from) >= value */\n      lt\n      iszero\n        /* \"contracts/token.sol\":1642:1699  require(balanceOf(from) >= value, 'Insufficient balance') */\n      tag_84\n      jumpi\n      mload(0x40)\n      shl(0xe5, 0x461bcd)\n      dup2\n      mstore\n        /* \"#utility.yul\":3502:3504   */\n      0x20\n        /* \"contracts/token.sol\":1642:1699  require(balanceOf(from) >= value, 'Insufficient balance') */\n      0x04\n      dup3\n      add\n        /* \"#utility.yul\":3484:3505   */\n      mstore\n        /* \"#utility.yul\":3541:3543   */\n      0x14\n        /* \"#utility.yul\":3521:3539   */\n      0x24\n      dup3\n      add\n        /* \"#utility.yul\":3514:3544   */\n      mstore\n      shl(0x60, 0x496e73756666696369656e742062616c616e6365)\n        /* \"#utility.yul\":3560:3578   */\n      0x44\n      dup3\n      add\n        /* \"#utility.yul\":3553:3603   */\n      mstore\n        /* \"#utility.yul\":3620:3638   */\n      0x64\n      add\n        /* \"contracts/token.sol\":1642:1699  require(balanceOf(from) >= value, 'Insufficient balance') */\n      tag_78\n        /* \"#utility.yul\":3300:3644   */\n      jump\n        /* \"contracts/token.sol\":1642:1699  require(balanceOf(from) >= value, 'Insufficient balance') */\n    tag_84:\n      sub(shl(0xa0, 0x01), 0x01)\n        /* \"contracts/token.sol\":1717:1732  allowance[from] */\n      dup5\n      and\n      0x00\n      swap1\n      dup2\n      mstore\n        /* \"contracts/token.sol\":1717:1726  allowance */\n      0x01\n        /* \"contracts/token.sol\":1717:1732  allowance[from] */\n      0x20\n      swap1\n      dup2\n      mstore\n      0x40\n      dup1\n      dup4\n      keccak256\n        /* \"contracts/token.sol\":1733:1743  msg.sender */\n      caller\n        /* \"contracts/token.sol\":1717:1744  allowance[from][msg.sender] */\n      dup5\n      mstore\n      swap1\n      swap2\n      mstore\n      swap1\n      keccak256\n      sload\n        /* \"contracts/token.sol\":1717:1753  allowance[from][msg.sender] >= value */\n      dup3\n      gt\n      iszero\n        /* \"contracts/token.sol\":1709:1775  require(allowance[from][msg.sender] >= value, 'Allowance too low') */\n      tag_87\n      jumpi\n      mload(0x40)\n      shl(0xe5, 0x461bcd)\n      dup2\n      mstore\n        /* \"#utility.yul\":3851:3853   */\n      0x20\n        /* \"contracts/token.sol\":1709:1775  require(allowance[from][msg.sender] >= value, 'Allowance too low') */\n      0x04\n      dup3\n      add\n        /* \"#utility.yul\":3833:3854   */\n      mstore\n        /* \"#utility.yul\":3890:3892   */\n      0x11\n        /* \"#utility.yul\":3870:3888   */\n      0x24\n      dup3\n      add\n        /* \"#utility.yul\":3863:3893   */\n      mstore\n      shl(0x78, 0x416c6c6f77616e636520746f6f206c6f77)\n        /* \"#utility.yul\":3909:3927   */\n      0x44\n      dup3\n      add\n        /* \"#utility.yul\":3902:3949   */\n      mstore\n        /* \"#utility.yul\":3966:3984   */\n      0x64\n      add\n        /* \"contracts/token.sol\":1709:1775  require(allowance[from][msg.sender] >= value, 'Allowance too low') */\n      tag_78\n        /* \"#utility.yul\":3649:3990   */\n      jump\n        /* \"contracts/token.sol\":1709:1775  require(allowance[from][msg.sender] >= value, 'Allowance too low') */\n    tag_87:\n      sub(shl(0xa0, 0x01), 0x01)\n        /* \"contracts/token.sol\":1785:1797  balances[to] */\n      dup4\n      and\n        /* \"contracts/token.sol\":1785:1793  balances */\n      0x00\n        /* \"contracts/token.sol\":1785:1797  balances[to] */\n      swap1\n      dup2\n      mstore\n      0x20\n      dup2\n      swap1\n      mstore\n      0x40\n      dup2\n      keccak256\n        /* \"contracts/token.sol\":1785:1806  balances[to] += value */\n      dup1\n      sload\n        /* \"contracts/token.sol\":1801:1806  value */\n      dup5\n      swap3\n        /* \"contracts/token.sol\":1785:1793  balances */\n      swap1\n        /* \"contracts/token.sol\":1785:1806  balances[to] += value */\n      tag_90\n      swap1\n        /* \"contracts/token.sol\":1801:1806  value */\n      dup5\n      swap1\n        /* \"contracts/token.sol\":1785:1806  balances[to] += value */\n      tag_91\n      jump\t// in\n    tag_90:\n      swap1\n      swap2\n      sstore\n      pop\n      pop\n      sub(shl(0xa0, 0x01), 0x01)\n        /* \"contracts/token.sol\":1816:1830  balances[from] */\n      dup5\n      and\n        /* \"contracts/token.sol\":1816:1824  balances */\n      0x00\n        /* \"contracts/token.sol\":1816:1830  balances[from] */\n      swap1\n      dup2\n      mstore\n      0x20\n      dup2\n      swap1\n      mstore\n      0x40\n      dup2\n      keccak256\n        /* \"contracts/token.sol\":1816:1839  balances[from] -= value */\n      dup1\n      sload\n        /* \"contracts/token.sol\":1834:1839  value */\n      dup5\n      swap3\n        /* \"contracts/token.sol\":1816:1824  balances */\n      swap1\n        /* \"contracts/token.sol\":1816:1839  balances[from] -= value */\n      tag_92\n      swap1\n        /* \"contracts/token.sol\":1834:1839  value */\n      dup5\n      swap1\n        /* \"contracts/token.sol\":1816:1839  balances[from] -= value */\n      tag_93\n      jump\t// in\n    tag_92:\n      swap1\n      swap2\n      sstore\n      pop\n      pop\n      sub(shl(0xa0, 0x01), 0x01)\n        /* \"contracts/token.sol\":1849:1864  allowance[from] */\n      dup5\n      and\n      0x00\n      swap1\n      dup2\n      mstore\n        /* \"contracts/token.sol\":1849:1858  allowance */\n      0x01\n        /* \"contracts/token.sol\":1849:1864  allowance[from] */\n      0x20\n      swap1\n      dup2\n      mstore\n      0x40\n      dup1\n      dup4\n      keccak256\n        /* \"contracts/token.sol\":1865:1875  msg.sender */\n      caller\n        /* \"contracts/token.sol\":1849:1876  allowance[from][msg.sender] */\n      dup5\n      mstore\n      swap1\n      swap2\n      mstore\n      dup2\n      keccak256\n        /* \"contracts/token.sol\":1849:1885  allowance[from][msg.sender] -= value */\n      dup1\n      sload\n        /* \"contracts/token.sol\":1880:1885  value */\n      dup5\n      swap3\n        /* \"contracts/token.sol\":1849:1864  allowance[from] */\n      swap1\n        /* \"contracts/token.sol\":1849:1885  allowance[from][msg.sender] -= value */\n      tag_94\n      swap1\n        /* \"contracts/token.sol\":1880:1885  value */\n      dup5\n      swap1\n        /* \"contracts/token.sol\":1849:1885  allowance[from][msg.sender] -= value */\n      tag_93\n      jump\t// in\n    tag_94:\n      swap3\n      pop\n      pop\n      dup2\n      swap1\n      sstore\n      pop\n        /* \"contracts/token.sol\":1915:1917  to */\n      dup3\n      sub(shl(0xa0, 0x01), 0x01)\n        /* \"contracts/token.sol\":1900:1925  Transfer(from, to, value) */\n      and\n        /* \"contracts/token.sol\":1909:1913  from */\n      dup5\n      sub(shl(0xa0, 0x01), 0x01)\n        /* \"contracts/token.sol\":1900:1925  Transfer(from, to, value) */\n      and\n      0xddf252ad1be2c89b69c2b068fc378daa952ba7f163c4a11628f55a4df523b3ef\n        /* \"contracts/token.sol\":1919:1924  value */\n      dup5\n        /* \"contracts/token.sol\":1900:1925  Transfer(from, to, value) */\n      mload(0x40)\n      tag_95\n      swap2\n        /* \"#utility.yul\":1212:1237   */\n      dup2\n      mstore\n        /* \"#utility.yul\":1200:1202   */\n      0x20\n        /* \"#utility.yul\":1185:1203   */\n      add\n      swap1\n        /* \"#utility.yul\":1066:1243   */\n      jump\n        /* \"contracts/token.sol\":1900:1925  Transfer(from, to, value) */\n    tag_95:\n      mload(0x40)\n      dup1\n      swap2\n      sub\n      swap1\n      log3\n      pop\n        /* \"contracts/token.sol\":1942:1946  true */\n      0x01\n        /* \"contracts/token.sol\":1358:1953  function transferFrom(address from, address to, uint value) public returns(bool) {... */\n      swap4\n      swap3\n      pop\n      pop\n      pop\n      jump\t// out\n        /* \"contracts/token.sol\":2263:2504  function increaseAllowance(address spender, uint addedValue) public returns (bool) {... */\n    tag_46:\n        /* \"contracts/token.sol\":2366:2376  msg.sender */\n      caller\n        /* \"contracts/token.sol\":2340:2344  bool */\n      0x00\n        /* \"contracts/token.sol\":2356:2377  allowance[msg.sender] */\n      swap1\n      dup2\n      mstore\n        /* \"contracts/token.sol\":2356:2365  allowance */\n      0x01\n        /* \"contracts/token.sol\":2356:2377  allowance[msg.sender] */\n      0x20\n      swap1\n      dup2\n      mstore\n      0x40\n      dup1\n      dup4\n      keccak256\n      sub(shl(0xa0, 0x01), 0x01)\n        /* \"contracts/token.sol\":2356:2386  allowance[msg.sender][spender] */\n      dup7\n      and\n      dup5\n      mstore\n      swap1\n      swap2\n      mstore\n      dup2\n      keccak256\n        /* \"contracts/token.sol\":2356:2400  allowance[msg.sender][spender] += addedValue */\n      dup1\n      sload\n        /* \"contracts/token.sol\":2390:2400  addedValue */\n      dup4\n      swap2\n        /* \"contracts/token.sol\":2356:2386  allowance[msg.sender][spender] */\n      swap1\n        /* \"contracts/token.sol\":2340:2344  bool */\n      dup4\n      swap1\n        /* \"contracts/token.sol\":2356:2400  allowance[msg.sender][spender] += addedValue */\n      tag_97\n      swap1\n        /* \"contracts/token.sol\":2390:2400  addedValue */\n      dup5\n      swap1\n        /* \"contracts/token.sol\":2356:2400  allowance[msg.sender][spender] += addedValue */\n      tag_91\n      jump\t// in\n    tag_97:\n      swap1\n      swap2\n      sstore\n      pop\n      pop\n        /* \"contracts/token.sol\":2424:2434  msg.sender */\n      caller\n        /* \"contracts/token.sol\":2445:2466  allowance[msg.sender] */\n      0x00\n      dup2\n      dup2\n      mstore\n        /* \"contracts/token.sol\":2445:2454  allowance */\n      0x01\n        /* \"contracts/token.sol\":2445:2466  allowance[msg.sender] */\n      0x20\n      swap1\n      dup2\n      mstore\n      0x40\n      dup1\n      dup4\n      keccak256\n      sub(shl(0xa0, 0x01), 0x01)\n        /* \"contracts/token.sol\":2415:2476  Approval(msg.sender, spender, allowance[msg.sender][spender]) */\n      dup9\n      and\n        /* \"contracts/token.sol\":2445:2475  allowance[msg.sender][spender] */\n      dup1\n      dup6\n      mstore\n      swap1\n      dup4\n      mstore\n      swap3\n      dup2\n      swap1\n      keccak256\n      sload\n        /* \"contracts/token.sol\":2415:2476  Approval(msg.sender, spender, allowance[msg.sender][spender]) */\n      swap1\n      mload\n        /* \"#utility.yul\":1212:1237   */\n      swap1\n      dup2\n      mstore\n        /* \"contracts/token.sol\":2415:2476  Approval(msg.sender, spender, allowance[msg.sender][spender]) */\n      swap2\n      swap3\n        /* \"contracts/token.sol\":2424:2434  msg.sender */\n      swap2\n        /* \"contracts/token.sol\":2415:2476  Approval(msg.sender, spender, allowance[msg.sender][spender]) */\n      0x8c5be1e5ebec7d5bd14f71427d1e84f3dd0314c0f7b2291e5b200ac8c7c3b925\n      swap2\n        /* \"#utility.yul\":1185:1203   */\n      add\n        /* \"contracts/token.sol\":2415:2476  Approval(msg.sender, spender, allowance[msg.sender][spender]) */\n      tag_75\n        /* \"#utility.yul\":1066:1243   */\n      jump\n        /* \"contracts/token.sol\":314:341  string public symbol = \"SE\" */\n    tag_53:\n      0x04\n      dup1\n      sload\n      tag_68\n      swap1\n      tag_69\n      jump\t// in\n        /* \"contracts/token.sol\":2548:2951  function decreaseAllowance(address spender, uint subtractedValue) public returns (bool) {... */\n    tag_57:\n        /* \"contracts/token.sol\":2680:2690  msg.sender */\n      caller\n        /* \"contracts/token.sol\":2630:2634  bool */\n      0x00\n        /* \"contracts/token.sol\":2670:2691  allowance[msg.sender] */\n      swap1\n      dup2\n      mstore\n        /* \"contracts/token.sol\":2670:2679  allowance */\n      0x01\n        /* \"contracts/token.sol\":2670:2691  allowance[msg.sender] */\n      0x20\n      swap1\n      dup2\n      mstore\n      0x40\n      dup1\n      dup4\n      keccak256\n      sub(shl(0xa0, 0x01), 0x01)\n        /* \"contracts/token.sol\":2670:2700  allowance[msg.sender][spender] */\n      dup7\n      and\n      dup5\n      mstore\n      swap1\n      swap2\n      mstore\n      dup2\n      keccak256\n      sload\n        /* \"contracts/token.sol\":2718:2753  currentAllowance >= subtractedValue */\n      dup3\n      dup2\n      lt\n      iszero\n        /* \"contracts/token.sol\":2710:2788  require(currentAllowance >= subtractedValue, \"Decreased allowance below zero\") */\n      tag_106\n      jumpi\n      mload(0x40)\n      shl(0xe5, 0x461bcd)\n      dup2\n      mstore\n        /* \"#utility.yul\":4592:4594   */\n      0x20\n        /* \"contracts/token.sol\":2710:2788  require(currentAllowance >= subtractedValue, \"Decreased allowance below zero\") */\n      0x04\n      dup3\n      add\n        /* \"#utility.yul\":4574:4595   */\n      mstore\n        /* \"#utility.yul\":4631:4633   */\n      0x1e\n        /* \"#utility.yul\":4611:4629   */\n      0x24\n      dup3\n      add\n        /* \"#utility.yul\":4604:4634   */\n      mstore\n        /* \"#utility.yul\":4670:4702   */\n      0x44656372656173656420616c6c6f77616e63652062656c6f77207a65726f0000\n        /* \"#utility.yul\":4650:4668   */\n      0x44\n      dup3\n      add\n        /* \"#utility.yul\":4643:4703   */\n      mstore\n        /* \"#utility.yul\":4720:4738   */\n      0x64\n      add\n        /* \"contracts/token.sol\":2710:2788  require(currentAllowance >= subtractedValue, \"Decreased allowance below zero\") */\n      tag_78\n        /* \"#utility.yul\":4390:4744   */\n      jump\n        /* \"contracts/token.sol\":2710:2788  require(currentAllowance >= subtractedValue, \"Decreased allowance below zero\") */\n    tag_106:\n        /* \"contracts/token.sol\":2808:2818  msg.sender */\n      caller\n        /* \"contracts/token.sol\":2798:2819  allowance[msg.sender] */\n      0x00\n      swap1\n      dup2\n      mstore\n        /* \"contracts/token.sol\":2798:2807  allowance */\n      0x01\n        /* \"contracts/token.sol\":2798:2819  allowance[msg.sender] */\n      0x20\n      swap1\n      dup2\n      mstore\n      0x40\n      dup1\n      dup4\n      keccak256\n      sub(shl(0xa0, 0x01), 0x01)\n        /* \"contracts/token.sol\":2798:2828  allowance[msg.sender][spender] */\n      dup9\n      and\n      dup5\n      mstore\n      swap1\n      swap2\n      mstore\n      dup2\n      keccak256\n        /* \"contracts/token.sol\":2798:2847  allowance[msg.sender][spender] -= subtractedValue */\n      dup1\n      sload\n        /* \"contracts/token.sol\":2832:2847  subtractedValue */\n      dup6\n      swap3\n        /* \"contracts/token.sol\":2798:2819  allowance[msg.sender] */\n      swap1\n        /* \"contracts/token.sol\":2798:2847  allowance[msg.sender][spender] -= subtractedValue */\n      tag_109\n      swap1\n        /* \"contracts/token.sol\":2832:2847  subtractedValue */\n      dup5\n      swap1\n        /* \"contracts/token.sol\":2798:2847  allowance[msg.sender][spender] -= subtractedValue */\n      tag_93\n      jump\t// in\n    tag_109:\n      swap1\n      swap2\n      sstore\n      pop\n      pop\n        /* \"contracts/token.sol\":2871:2881  msg.sender */\n      caller\n        /* \"contracts/token.sol\":2892:2913  allowance[msg.sender] */\n      0x00\n      dup2\n      dup2\n      mstore\n        /* \"contracts/token.sol\":2892:2901  allowance */\n      0x01\n        /* \"contracts/token.sol\":2892:2913  allowance[msg.sender] */\n      0x20\n      swap1\n      dup2\n      mstore\n      0x40\n      dup1\n      dup4\n      keccak256\n      sub(shl(0xa0, 0x01), 0x01)\n        /* \"contracts/token.sol\":2862:2923  Approval(msg.sender, spender, allowance[msg.sender][spender]) */\n      dup10\n      and\n        /* \"contracts/token.sol\":2892:2922  allowance[msg.sender][spender] */\n      dup1\n      dup6\n      mstore\n      swap1\n      dup4\n      mstore\n      swap3\n      dup2\n      swap1\n      keccak256\n      sload\n        /* \"contracts/token.sol\":2862:2923  Approval(msg.sender, spender, allowance[msg.sender][spender]) */\n      swap1\n      mload\n        /* \"#utility.yul\":1212:1237   */\n      swap1\n      dup2\n      mstore\n        /* \"contracts/token.sol\":2862:2923  Approval(msg.sender, spender, allowance[msg.sender][spender]) */\n      swap2\n      swap3\n        /* \"contracts/token.sol\":2871:2881  msg.sender */\n      swap2\n        /* \"contracts/token.sol\":2862:2923  Approval(msg.sender, spender, allowance[msg.sender][spender]) */\n      0x8c5be1e5ebec7d5bd14f71427d1e84f3dd0314c0f7b2291e5b200ac8c7c3b925\n      swap2\n        /* \"#utility.yul\":1185:1203   */\n      add\n        /* \"contracts/token.sol\":2862:2923  Approval(msg.sender, spender, allowance[msg.sender][spender]) */\n      mload(0x40)\n      dup1\n      swap2\n      sub\n      swap1\n      log3\n      pop\n        /* \"contracts/token.sol\":2940:2944  true */\n      0x01\n      swap4\n        /* \"contracts/token.sol\":2548:2951  function decreaseAllowance(address spender, uint subtractedValue) public returns (bool) {... */\n      swap3\n      pop\n      pop\n      pop\n      jump\t// out\n        /* \"contracts/token.sol\":899:1275  function transfer(address to, uint value) public returns(bool) {... */\n    tag_61:\n        /* \"contracts/token.sol\":956:960  bool */\n      0x00\n      sub(shl(0xa0, 0x01), 0x01)\n        /* \"contracts/token.sol\":980:996  to != address(0) */\n      dup4\n      and\n        /* \"contracts/token.sol\":972:1018  require(to != address(0), \"Invalid recipient\") */\n      tag_112\n      jumpi\n      mload(0x40)\n      shl(0xe5, 0x461bcd)\n      dup2\n      mstore\n        /* \"#utility.yul\":3156:3158   */\n      0x20\n        /* \"contracts/token.sol\":972:1018  require(to != address(0), \"Invalid recipient\") */\n      0x04\n      dup3\n      add\n        /* \"#utility.yul\":3138:3159   */\n      mstore\n        /* \"#utility.yul\":3195:3197   */\n      0x11\n        /* \"#utility.yul\":3175:3193   */\n      0x24\n      dup3\n      add\n        /* \"#utility.yul\":3168:3198   */\n      mstore\n      shl(0x7a, 0x125b9d985b1a59081c9958da5c1a595b9d)\n        /* \"#utility.yul\":3214:3232   */\n      0x44\n      dup3\n      add\n        /* \"#utility.yul\":3207:3254   */\n      mstore\n        /* \"#utility.yul\":3271:3289   */\n      0x64\n      add\n        /* \"contracts/token.sol\":972:1018  require(to != address(0), \"Invalid recipient\") */\n      tag_78\n        /* \"#utility.yul\":2954:3295   */\n      jump\n        /* \"contracts/token.sol\":972:1018  require(to != address(0), \"Invalid recipient\") */\n    tag_112:\n        /* \"contracts/token.sol\":1086:1096  msg.sender */\n      caller\n        /* \"contracts/token.sol\":813:817  uint */\n      0x00\n        /* \"contracts/token.sol\":836:851  balances[owner] */\n      swap1\n      dup2\n      mstore\n      0x20\n      dup2\n      swap1\n      mstore\n      0x40\n      swap1\n      keccak256\n      sload\n        /* \"contracts/token.sol\":1101:1106  value */\n      dup3\n      gt\n        /* \"contracts/token.sol\":1076:1106  balanceOf(msg.sender) >= value */\n      iszero\n        /* \"contracts/token.sol\":1068:1131  require(balanceOf(msg.sender) >= value, 'Insufficient balance') */\n      tag_115\n      jumpi\n      mload(0x40)\n      shl(0xe5, 0x461bcd)\n      dup2\n      mstore\n        /* \"#utility.yul\":3502:3504   */\n      0x20\n        /* \"contracts/token.sol\":1068:1131  require(balanceOf(msg.sender) >= value, 'Insufficient balance') */\n      0x04\n      dup3\n      add\n        /* \"#utility.yul\":3484:3505   */\n      mstore\n        /* \"#utility.yul\":3541:3543   */\n      0x14\n        /* \"#utility.yul\":3521:3539   */\n      0x24\n      dup3\n      add\n        /* \"#utility.yul\":3514:3544   */\n      mstore\n      shl(0x60, 0x496e73756666696369656e742062616c616e6365)\n        /* \"#utility.yul\":3560:3578   */\n      0x44\n      dup3\n      add\n        /* \"#utility.yul\":3553:3603   */\n      mstore\n        /* \"#utility.yul\":3620:3638   */\n      0x64\n      add\n        /* \"contracts/token.sol\":1068:1131  require(balanceOf(msg.sender) >= value, 'Insufficient balance') */\n      tag_78\n        /* \"#utility.yul\":3300:3644   */\n      jump\n        /* \"contracts/token.sol\":1068:1131  require(balanceOf(msg.sender) >= value, 'Insufficient balance') */\n    tag_115:\n      sub(shl(0xa0, 0x01), 0x01)\n        /* \"contracts/token.sol\":1141:1153  balances[to] */\n      dup4\n      and\n        /* \"contracts/token.sol\":1141:1149  balances */\n      0x00\n        /* \"contracts/token.sol\":1141:1153  balances[to] */\n      swap1\n      dup2\n      mstore\n      0x20\n      dup2\n      swap1\n      mstore\n      0x40\n      dup2\n      keccak256\n        /* \"contracts/token.sol\":1141:1162  balances[to] += value */\n      dup1\n      sload\n        /* \"contracts/token.sol\":1157:1162  value */\n      dup5\n      swap3\n        /* \"contracts/token.sol\":1141:1149  balances */\n      swap1\n        /* \"contracts/token.sol\":1141:1162  balances[to] += value */\n      tag_117\n      swap1\n        /* \"contracts/token.sol\":1157:1162  value */\n      dup5\n      swap1\n        /* \"contracts/token.sol\":1141:1162  balances[to] += value */\n      tag_91\n      jump\t// in\n    tag_117:\n      swap1\n      swap2\n      sstore\n      pop\n      pop\n        /* \"contracts/token.sol\":1181:1191  msg.sender */\n      caller\n        /* \"contracts/token.sol\":1172:1180  balances */\n      0x00\n        /* \"contracts/token.sol\":1172:1192  balances[msg.sender] */\n      swap1\n      dup2\n      mstore\n      0x20\n      dup2\n      swap1\n      mstore\n      0x40\n      dup2\n      keccak256\n        /* \"contracts/token.sol\":1172:1201  balances[msg.sender] -= value */\n      dup1\n      sload\n        /* \"contracts/token.sol\":1196:1201  value */\n      dup5\n      swap3\n        /* \"contracts/token.sol\":1172:1180  balances */\n      swap1\n        /* \"contracts/token.sol\":1172:1201  balances[msg.sender] -= value */\n      tag_118\n      swap1\n        /* \"contracts/token.sol\":1196:1201  value */\n      dup5\n      swap1\n        /* \"contracts/token.sol\":1172:1201  balances[msg.sender] -= value */\n      tag_93\n      jump\t// in\n    tag_118:\n      swap1\n      swap2\n      sstore\n      pop\n      pop\n        /* \"contracts/token.sol\":1216:1247  Transfer(msg.sender, to, value) */\n      mload(0x40)\n        /* \"#utility.yul\":1212:1237   */\n      dup3\n      dup2\n      mstore\n      sub(shl(0xa0, 0x01), 0x01)\n        /* \"contracts/token.sol\":1216:1247  Transfer(msg.sender, to, value) */\n      dup5\n      and\n      swap1\n        /* \"contracts/token.sol\":1225:1235  msg.sender */\n      caller\n      swap1\n        /* \"contracts/token.sol\":1216:1247  Transfer(msg.sender, to, value) */\n      0xddf252ad1be2c89b69c2b068fc378daa952ba7f163c4a11628f55a4df523b3ef\n      swap1\n        /* \"#utility.yul\":1200:1202   */\n      0x20\n        /* \"#utility.yul\":1185:1203   */\n      add\n        /* \"contracts/token.sol\":1216:1247  Transfer(msg.sender, to, value) */\n      tag_75\n        /* \"#utility.yul\":1066:1243   */\n      jump\n        /* \"#utility.yul\":14:432   */\n    tag_19:\n        /* \"#utility.yul\":163:165   */\n      0x20\n        /* \"#utility.yul\":152:161   */\n      dup2\n        /* \"#utility.yul\":145:166   */\n      mstore\n        /* \"#utility.yul\":126:130   */\n      0x00\n        /* \"#utility.yul\":195:201   */\n      dup3\n        /* \"#utility.yul\":189:202   */\n      mload\n        /* \"#utility.yul\":238:244   */\n      dup1\n        /* \"#utility.yul\":233:235   */\n      0x20\n        /* \"#utility.yul\":222:231   */\n      dup5\n        /* \"#utility.yul\":218:236   */\n      add\n        /* \"#utility.yul\":211:245   */\n      mstore\n        /* \"#utility.yul\":297:303   */\n      dup1\n        /* \"#utility.yul\":292:294   */\n      0x20\n        /* \"#utility.yul\":284:290   */\n      dup6\n        /* \"#utility.yul\":280:295   */\n      add\n        /* \"#utility.yul\":275:277   */\n      0x40\n        /* \"#utility.yul\":264:273   */\n      dup6\n        /* \"#utility.yul\":260:278   */\n      add\n        /* \"#utility.yul\":254:304   */\n      mcopy\n        /* \"#utility.yul\":353:354   */\n      0x00\n        /* \"#utility.yul\":348:350   */\n      0x40\n        /* \"#utility.yul\":339:345   */\n      dup3\n        /* \"#utility.yul\":328:337   */\n      dup6\n        /* \"#utility.yul\":324:346   */\n      add\n        /* \"#utility.yul\":320:351   */\n      add\n        /* \"#utility.yul\":313:355   */\n      mstore\n        /* \"#utility.yul\":423:425   */\n      0x40\n        /* \"#utility.yul\":416:418   */\n      0x1f\n        /* \"#utility.yul\":412:419   */\n      not\n        /* \"#utility.yul\":407:409   */\n      0x1f\n        /* \"#utility.yul\":399:405   */\n      dup4\n        /* \"#utility.yul\":395:410   */\n      add\n        /* \"#utility.yul\":391:420   */\n      and\n        /* \"#utility.yul\":380:389   */\n      dup5\n        /* \"#utility.yul\":376:421   */\n      add\n        /* \"#utility.yul\":372:426   */\n      add\n        /* \"#utility.yul\":364:426   */\n      swap2\n      pop\n      pop\n        /* \"#utility.yul\":14:432   */\n      swap3\n      swap2\n      pop\n      pop\n      jump\t// out\n        /* \"#utility.yul\":437:610   */\n    tag_120:\n        /* \"#utility.yul\":505:525   */\n      dup1\n      calldataload\n      sub(shl(0xa0, 0x01), 0x01)\n        /* \"#utility.yul\":554:585   */\n      dup2\n      and\n        /* \"#utility.yul\":544:586   */\n      dup2\n      eq\n        /* \"#utility.yul\":534:604   */\n      tag_125\n      jumpi\n        /* \"#utility.yul\":600:601   */\n      0x00\n        /* \"#utility.yul\":597:598   */\n      dup1\n        /* \"#utility.yul\":590:602   */\n      revert\n        /* \"#utility.yul\":534:604   */\n    tag_125:\n        /* \"#utility.yul\":437:610   */\n      swap2\n      swap1\n      pop\n      jump\t// out\n        /* \"#utility.yul\":615:869   */\n    tag_22:\n        /* \"#utility.yul\":683:689   */\n      0x00\n        /* \"#utility.yul\":691:697   */\n      dup1\n        /* \"#utility.yul\":744:746   */\n      0x40\n        /* \"#utility.yul\":732:741   */\n      dup4\n        /* \"#utility.yul\":723:730   */\n      dup6\n        /* \"#utility.yul\":719:742   */\n      sub\n        /* \"#utility.yul\":715:747   */\n      slt\n        /* \"#utility.yul\":712:764   */\n      iszero\n      tag_127\n      jumpi\n        /* \"#utility.yul\":760:761   */\n      0x00\n        /* \"#utility.yul\":757:758   */\n      dup1\n        /* \"#utility.yul\":750:762   */\n      revert\n        /* \"#utility.yul\":712:764   */\n    tag_127:\n        /* \"#utility.yul\":783:812   */\n      tag_128\n        /* \"#utility.yul\":802:811   */\n      dup4\n        /* \"#utility.yul\":783:812   */\n      tag_120\n      jump\t// in\n    tag_128:\n        /* \"#utility.yul\":773:812   */\n      swap5\n        /* \"#utility.yul\":859:861   */\n      0x20\n        /* \"#utility.yul\":844:862   */\n      swap4\n      swap1\n      swap4\n      add\n        /* \"#utility.yul\":831:863   */\n      calldataload\n      swap4\n      pop\n      pop\n      pop\n        /* \"#utility.yul\":615:869   */\n      jump\t// out\n        /* \"#utility.yul\":1248:1576   */\n    tag_32:\n        /* \"#utility.yul\":1325:1331   */\n      0x00\n        /* \"#utility.yul\":1333:1339   */\n      dup1\n        /* \"#utility.yul\":1341:1347   */\n      0x00\n        /* \"#utility.yul\":1394:1396   */\n      0x60\n        /* \"#utility.yul\":1382:1391   */\n      dup5\n        /* \"#utility.yul\":1373:1380   */\n      dup7\n        /* \"#utility.yul\":1369:1392   */\n      sub\n        /* \"#utility.yul\":1365:1397   */\n      slt\n        /* \"#utility.yul\":1362:1414   */\n      iszero\n      tag_132\n      jumpi\n        /* \"#utility.yul\":1410:1411   */\n      0x00\n        /* \"#utility.yul\":1407:1408   */\n      dup1\n        /* \"#utility.yul\":1400:1412   */\n      revert\n        /* \"#utility.yul\":1362:1414   */\n    tag_132:\n        /* \"#utility.yul\":1433:1462   */\n      tag_133\n        /* \"#utility.yul\":1452:1461   */\n      dup5\n        /* \"#utility.yul\":1433:1462   */\n      tag_120\n      jump\t// in\n    tag_133:\n        /* \"#utility.yul\":1423:1462   */\n      swap3\n      pop\n        /* \"#utility.yul\":1481:1519   */\n      tag_134\n        /* \"#utility.yul\":1515:1517   */\n      0x20\n        /* \"#utility.yul\":1504:1513   */\n      dup6\n        /* \"#utility.yul\":1500:1518   */\n      add\n        /* \"#utility.yul\":1481:1519   */\n      tag_120\n      jump\t// in\n    tag_134:\n        /* \"#utility.yul\":1471:1519   */\n      swap2\n      pop\n        /* \"#utility.yul\":1566:1568   */\n      0x40\n        /* \"#utility.yul\":1555:1564   */\n      dup5\n        /* \"#utility.yul\":1551:1569   */\n      add\n        /* \"#utility.yul\":1538:1570   */\n      calldataload\n        /* \"#utility.yul\":1528:1570   */\n      swap1\n      pop\n        /* \"#utility.yul\":1248:1576   */\n      swap3\n      pop\n      swap3\n      pop\n      swap3\n      jump\t// out\n        /* \"#utility.yul\":1581:1767   */\n    tag_37:\n        /* \"#utility.yul\":1640:1646   */\n      0x00\n        /* \"#utility.yul\":1693:1695   */\n      0x20\n        /* \"#utility.yul\":1681:1690   */\n      dup3\n        /* \"#utility.yul\":1672:1679   */\n      dup5\n        /* \"#utility.yul\":1668:1691   */\n      sub\n        /* \"#utility.yul\":1664:1696   */\n      slt\n        /* \"#utility.yul\":1661:1713   */\n      iszero\n      tag_136\n      jumpi\n        /* \"#utility.yul\":1709:1710   */\n      0x00\n        /* \"#utility.yul\":1706:1707   */\n      dup1\n        /* \"#utility.yul\":1699:1711   */\n      revert\n        /* \"#utility.yul\":1661:1713   */\n    tag_136:\n        /* \"#utility.yul\":1732:1761   */\n      tag_137\n        /* \"#utility.yul\":1751:1760   */\n      dup3\n        /* \"#utility.yul\":1732:1761   */\n      tag_120\n      jump\t// in\n    tag_137:\n        /* \"#utility.yul\":1722:1761   */\n      swap4\n        /* \"#utility.yul\":1581:1767   */\n      swap3\n      pop\n      pop\n      pop\n      jump\t// out\n        /* \"#utility.yul\":1961:2221   */\n    tag_65:\n        /* \"#utility.yul\":2029:2035   */\n      0x00\n        /* \"#utility.yul\":2037:2043   */\n      dup1\n        /* \"#utility.yul\":2090:2092   */\n      0x40\n        /* \"#utility.yul\":2078:2087   */\n      dup4\n        /* \"#utility.yul\":2069:2076   */\n      dup6\n        /* \"#utility.yul\":2065:2088   */\n      sub\n        /* \"#utility.yul\":2061:2093   */\n      slt\n        /* \"#utility.yul\":2058:2110   */\n      iszero\n      tag_140\n      jumpi\n        /* \"#utility.yul\":2106:2107   */\n      0x00\n        /* \"#utility.yul\":2103:2104   */\n      dup1\n        /* \"#utility.yul\":2096:2108   */\n      revert\n        /* \"#utility.yul\":2058:2110   */\n    tag_140:\n        /* \"#utility.yul\":2129:2158   */\n      tag_141\n        /* \"#utility.yul\":2148:2157   */\n      dup4\n        /* \"#utility.yul\":2129:2158   */\n      tag_120\n      jump\t// in\n    tag_141:\n        /* \"#utility.yul\":2119:2158   */\n      swap2\n      pop\n        /* \"#utility.yul\":2177:2215   */\n      tag_142\n        /* \"#utility.yul\":2211:2213   */\n      0x20\n        /* \"#utility.yul\":2200:2209   */\n      dup5\n        /* \"#utility.yul\":2196:2214   */\n      add\n        /* \"#utility.yul\":2177:2215   */\n      tag_120\n      jump\t// in\n    tag_142:\n        /* \"#utility.yul\":2167:2215   */\n      swap1\n      pop\n        /* \"#utility.yul\":1961:2221   */\n      swap3\n      pop\n      swap3\n      swap1\n      pop\n      jump\t// out\n        /* \"#utility.yul\":2226:2606   */\n    tag_69:\n        /* \"#utility.yul\":2305:2306   */\n      0x01\n        /* \"#utility.yul\":2301:2313   */\n      dup2\n      dup2\n      shr\n      swap1\n        /* \"#utility.yul\":2348:2360   */\n      dup3\n      and\n      dup1\n        /* \"#utility.yul\":2369:2430   */\n      tag_144\n      jumpi\n        /* \"#utility.yul\":2423:2427   */\n      0x7f\n        /* \"#utility.yul\":2415:2421   */\n      dup3\n        /* \"#utility.yul\":2411:2428   */\n      and\n        /* \"#utility.yul\":2401:2428   */\n      swap2\n      pop\n        /* \"#utility.yul\":2369:2430   */\n    tag_144:\n        /* \"#utility.yul\":2476:2478   */\n      0x20\n        /* \"#utility.yul\":2468:2474   */\n      dup3\n        /* \"#utility.yul\":2465:2479   */\n      lt\n        /* \"#utility.yul\":2445:2463   */\n      dup2\n        /* \"#utility.yul\":2442:2480   */\n      sub\n        /* \"#utility.yul\":2439:2600   */\n      tag_145\n      jumpi\n        /* \"#utility.yul\":2522:2532   */\n      0x4e487b71\n        /* \"#utility.yul\":2517:2520   */\n      0xe0\n        /* \"#utility.yul\":2513:2533   */\n      shl\n        /* \"#utility.yul\":2510:2511   */\n      0x00\n        /* \"#utility.yul\":2503:2534   */\n      mstore\n        /* \"#utility.yul\":2557:2561   */\n      0x22\n        /* \"#utility.yul\":2554:2555   */\n      0x04\n        /* \"#utility.yul\":2547:2562   */\n      mstore\n        /* \"#utility.yul\":2585:2589   */\n      0x24\n        /* \"#utility.yul\":2582:2583   */\n      0x00\n        /* \"#utility.yul\":2575:2590   */\n      revert\n        /* \"#utility.yul\":2439:2600   */\n    tag_145:\n      pop\n        /* \"#utility.yul\":2226:2606   */\n      swap2\n      swap1\n      pop\n      jump\t// out\n        /* \"#utility.yul\":3995:4122   */\n    tag_121:\n        /* \"#utility.yul\":4056:4066   */\n      0x4e487b71\n        /* \"#utility.yul\":4051:4054   */\n      0xe0\n        /* \"#utility.yul\":4047:4067   */\n      shl\n        /* \"#utility.yul\":4044:4045   */\n      0x00\n        /* \"#utility.yul\":4037:4068   */\n      mstore\n        /* \"#utility.yul\":4087:4091   */\n      0x11\n        /* \"#utility.yul\":4084:4085   */\n      0x04\n        /* \"#utility.yul\":4077:4092   */\n      mstore\n        /* \"#utility.yul\":4111:4115   */\n      0x24\n        /* \"#utility.yul\":4108:4109   */\n      0x00\n        /* \"#utility.yul\":4101:4116   */\n      revert\n        /* \"#utility.yul\":4127:4252   */\n    tag_91:\n        /* \"#utility.yul\":4192:4201   */\n      dup1\n      dup3\n      add\n        /* \"#utility.yul\":4213:4223   */\n      dup1\n      dup3\n      gt\n        /* \"#utility.yul\":4210:4246   */\n      iszero\n      tag_74\n      jumpi\n        /* \"#utility.yul\":4226:4244   */\n      tag_74\n      tag_121\n      jump\t// in\n        /* \"#utility.yul\":4257:4385   */\n    tag_93:\n        /* \"#utility.yul\":4324:4333   */\n      dup2\n      dup2\n      sub\n        /* \"#utility.yul\":4345:4356   */\n      dup2\n      dup2\n      gt\n        /* \"#utility.yul\":4342:4379   */\n      iszero\n      tag_74\n      jumpi\n        /* \"#utility.yul\":4359:4377   */\n      tag_74\n      tag_121\n      jump\t// in\n\n    auxdata: 0xa26469706673582212203555ddc583ea4d15cc7b6f2732d22415bf82076b80761c44966a32b4cf93380e64736f6c63430008190033\n}\n",
				"bytecode": {
					"linkReferences": {},
					"object": "69021e19e0c9bab240000060025560c0604052600660809081526553656c696e6160d01b60a0526003906100339082610123565b50604080518082019091526002815261534560f01b602082015260049061005a9082610123565b506005805460ff19166012179055348015610073575f80fd5b50600254335f908152602081905260409020556101e2565b634e487b7160e01b5f52604160045260245ffd5b600181811c908216806100b357607f821691505b6020821081036100d157634e487b7160e01b5f52602260045260245ffd5b50919050565b601f82111561011e57805f5260205f20601f840160051c810160208510156100fc5750805b601f840160051c820191505b8181101561011b575f8155600101610108565b50505b505050565b81516001600160401b0381111561013c5761013c61008b565b6101508161014a845461009f565b846100d7565b602080601f831160018114610183575f841561016c5750858301515b5f19600386901b1c1916600185901b1785556101da565b5f85815260208120601f198616915b828110156101b157888601518255948401946001909101908401610192565b50858210156101ce57878501515f19600388901b60f8161c191681555b505060018460011b0185555b505050505050565b6109b1806101ef5f395ff3fe608060405234801561000f575f80fd5b50600436106100b1575f3560e01c8063395093511161006e578063395093511461015e57806370a082311461017157806395d89b4114610199578063a457c2d7146101a1578063a9059cbb146101b4578063dd62ed3e146101c7575f80fd5b806306fdde03146100b5578063095ea7b3146100d357806318160ddd146100f657806323b872dd1461010d57806327e235e314610120578063313ce5671461013f575b5f80fd5b6100bd6101f1565b6040516100ca9190610807565b60405180910390f35b6100e66100e1366004610857565b61027d565b60405190151581526020016100ca565b6100ff60025481565b6040519081526020016100ca565b6100e661011b36600461087f565b6102e9565b6100ff61012e3660046108b8565b5f6020819052908152604090205481565b60055461014c9060ff1681565b60405160ff90911681526020016100ca565b6100e661016c366004610857565b610532565b6100ff61017f3660046108b8565b6001600160a01b03165f9081526020819052604090205490565b6100bd6105c1565b6100e66101af366004610857565b6105ce565b6100e66101c2366004610857565b6106db565b6100ff6101d53660046108d8565b600160209081525f928352604080842090915290825290205481565b600380546101fe90610909565b80601f016020809104026020016040519081016040528092919081815260200182805461022a90610909565b80156102755780601f1061024c57610100808354040283529160200191610275565b820191905f5260205f20905b81548152906001019060200180831161025857829003601f168201915b505050505081565b335f8181526001602090815260408083206001600160a01b038716808552925280832085905551919290917f8c5be1e5ebec7d5bd14f71427d1e84f3dd0314c0f7b2291e5b200ac8c7c3b925906102d79086815260200190565b60405180910390a35060015b92915050565b5f6001600160a01b0384166103365760405162461bcd60e51b815260206004820152600e60248201526d24b73b30b634b21039b2b73232b960911b60448201526064015b60405180910390fd5b6001600160a01b0383166103805760405162461bcd60e51b8152602060048201526011602482015270125b9d985b1a59081c9958da5c1a595b9d607a1b604482015260640161032d565b8161039f856001600160a01b03165f9081526020819052604090205490565b10156103e45760405162461bcd60e51b8152602060048201526014602482015273496e73756666696369656e742062616c616e636560601b604482015260640161032d565b6001600160a01b0384165f90815260016020908152604080832033845290915290205482111561044a5760405162461bcd60e51b8152602060048201526011602482015270416c6c6f77616e636520746f6f206c6f7760781b604482015260640161032d565b6001600160a01b0383165f9081526020819052604081208054849290610471908490610955565b90915550506001600160a01b0384165f908152602081905260408120805484929061049d908490610968565b90915550506001600160a01b0384165f908152600160209081526040808320338452909152812080548492906104d4908490610968565b92505081905550826001600160a01b0316846001600160a01b03167fddf252ad1be2c89b69c2b068fc378daa952ba7f163c4a11628f55a4df523b3ef8460405161052091815260200190565b60405180910390a35060019392505050565b335f9081526001602090815260408083206001600160a01b0386168452909152812080548391908390610566908490610955565b9091555050335f8181526001602090815260408083206001600160a01b038816808552908352928190205490519081529192917f8c5be1e5ebec7d5bd14f71427d1e84f3dd0314c0f7b2291e5b200ac8c7c3b92591016102d7565b600480546101fe90610909565b335f9081526001602090815260408083206001600160a01b0386168452909152812054828110156106415760405162461bcd60e51b815260206004820152601e60248201527f44656372656173656420616c6c6f77616e63652062656c6f77207a65726f0000604482015260640161032d565b335f9081526001602090815260408083206001600160a01b038816845290915281208054859290610673908490610968565b9091555050335f8181526001602090815260408083206001600160a01b038916808552908352928190205490519081529192917f8c5be1e5ebec7d5bd14f71427d1e84f3dd0314c0f7b2291e5b200ac8c7c3b925910160405180910390a35060019392505050565b5f6001600160a01b0383166107265760405162461bcd60e51b8152602060048201526011602482015270125b9d985b1a59081c9958da5c1a595b9d607a1b604482015260640161032d565b335f9081526020819052604090205482111561077b5760405162461bcd60e51b8152602060048201526014602482015273496e73756666696369656e742062616c616e636560601b604482015260640161032d565b6001600160a01b0383165f90815260208190526040812080548492906107a2908490610955565b9091555050335f90815260208190526040812080548492906107c5908490610968565b90915550506040518281526001600160a01b0384169033907fddf252ad1be2c89b69c2b068fc378daa952ba7f163c4a11628f55a4df523b3ef906020016102d7565b602081525f82518060208401528060208501604085015e5f604082850101526040601f19601f83011684010191505092915050565b80356001600160a01b0381168114610852575f80fd5b919050565b5f8060408385031215610868575f80fd5b6108718361083c565b946020939093013593505050565b5f805f60608486031215610891575f80fd5b61089a8461083c565b92506108a86020850161083c565b9150604084013590509250925092565b5f602082840312156108c8575f80fd5b6108d18261083c565b9392505050565b5f80604083850312156108e9575f80fd5b6108f28361083c565b91506109006020840161083c565b90509250929050565b600181811c9082168061091d57607f821691505b60208210810361093b57634e487b7160e01b5f52602260045260245ffd5b50919050565b634e487b7160e01b5f52601160045260245ffd5b808201808211156102e3576102e3610941565b818103818111156102e3576102e361094156fea26469706673582212203555ddc583ea4d15cc7b6f2732d22415bf82076b80761c44966a32b4cf93380e64736f6c63430008190033",
					"opcodes": "PUSH10 0x21E19E0C9BAB2400000 PUSH1 0x2 SSTORE PUSH1 0xC0 PUSH1 0x40 MSTORE PUSH1 0x6 PUSH1 0x80 SWAP1 DUP2 MSTORE PUSH6 0x53656C696E61 PUSH1 0xD0 SHL PUSH1 0xA0 MSTORE PUSH1 0x3 SWAP1 PUSH2 0x33 SWAP1 DUP3 PUSH2 0x123 JUMP JUMPDEST POP PUSH1 0x40 DUP1 MLOAD DUP1 DUP3 ADD SWAP1 SWAP2 MSTORE PUSH1 0x2 DUP2 MSTORE PUSH2 0x5345 PUSH1 0xF0 SHL PUSH1 0x20 DUP3 ADD MSTORE PUSH1 0x4 SWAP1 PUSH2 0x5A SWAP1 DUP3 PUSH2 0x123 JUMP JUMPDEST POP PUSH1 0x5 DUP1 SLOAD PUSH1 0xFF NOT AND PUSH1 0x12 OR SWAP1 SSTORE CALLVALUE DUP1 ISZERO PUSH2 0x73 JUMPI PUSH0 DUP1 REVERT JUMPDEST POP PUSH1 0x2 SLOAD CALLER PUSH0 SWAP1 DUP2 MSTORE PUSH1 0x20 DUP2 SWAP1 MSTORE PUSH1 0x40 SWAP1 KECCAK256 SSTORE PUSH2 0x1E2 JUMP JUMPDEST PUSH4 0x4E487B71 PUSH1 0xE0 SHL PUSH0 MSTORE PUSH1 0x41 PUSH1 0x4 MSTORE PUSH1 0x24 PUSH0 REVERT JUMPDEST PUSH1 0x1 DUP2 DUP2 SHR SWAP1 DUP3 AND DUP1 PUSH2 0xB3 JUMPI PUSH1 0x7F DUP3 AND SWAP2 POP JUMPDEST PUSH1 0x20 DUP3 LT DUP2 SUB PUSH2 0xD1 JUMPI PUSH4 0x4E487B71 PUSH1 0xE0 SHL PUSH0 MSTORE PUSH1 0x22 PUSH1 0x4 MSTORE PUSH1 0x24 PUSH0 REVERT JUMPDEST POP SWAP2 SWAP1 POP JUMP JUMPDEST PUSH1 0x1F DUP3 GT ISZERO PUSH2 0x11E JUMPI DUP1 PUSH0 MSTORE PUSH1 0x20 PUSH0 KECCAK256 PUSH1 0x1F DUP5 ADD PUSH1 0x5 SHR DUP2 ADD PUSH1 0x20 DUP6 LT ISZERO PUSH2 0xFC JUMPI POP DUP1 JUMPDEST PUSH1 0x1F DUP5 ADD PUSH1 0x5 SHR DUP3 ADD SWAP2 POP JUMPDEST DUP2 DUP2 LT ISZERO PUSH2 0x11B JUMPI PUSH0 DUP2 SSTORE PUSH1 0x1 ADD PUSH2 0x108 JUMP JUMPDEST POP POP JUMPDEST POP POP POP JUMP JUMPDEST DUP2 MLOAD PUSH1 0x1 PUSH1 0x1 PUSH1 0x40 SHL SUB DUP2 GT ISZERO PUSH2 0x13C JUMPI PUSH2 0x13C PUSH2 0x8B JUMP JUMPDEST PUSH2 0x150 DUP2 PUSH2 0x14A DUP5 SLOAD PUSH2 0x9F JUMP JUMPDEST DUP5 PUSH2 0xD7 JUMP JUMPDEST PUSH1 0x20 DUP1 PUSH1 0x1F DUP4 GT PUSH1 0x1 DUP2 EQ PUSH2 0x183 JUMPI PUSH0 DUP5 ISZERO PUSH2 0x16C JUMPI POP DUP6 DUP4 ADD MLOAD JUMPDEST PUSH0 NOT PUSH1 0x3 DUP7 SWAP1 SHL SHR NOT AND PUSH1 0x1 DUP6 SWAP1 SHL OR DUP6 SSTORE PUSH2 0x1DA JUMP JUMPDEST PUSH0 DUP6 DUP2 MSTORE PUSH1 0x20 DUP2 KECCAK256 PUSH1 0x1F NOT DUP7 AND SWAP2 JUMPDEST DUP3 DUP2 LT ISZERO PUSH2 0x1B1 JUMPI DUP9 DUP7 ADD MLOAD DUP3 SSTORE SWAP5 DUP5 ADD SWAP5 PUSH1 0x1 SWAP1 SWAP2 ADD SWAP1 DUP5 ADD PUSH2 0x192 JUMP JUMPDEST POP DUP6 DUP3 LT ISZERO PUSH2 0x1CE JUMPI DUP8 DUP6 ADD MLOAD PUSH0 NOT PUSH1 0x3 DUP9 SWAP1 SHL PUSH1 0xF8 AND SHR NOT AND DUP2 SSTORE JUMPDEST POP POP PUSH1 0x1 DUP5 PUSH1 0x1 SHL ADD DUP6 SSTORE JUMPDEST POP POP POP POP POP POP JUMP JUMPDEST PUSH2 0x9B1 DUP1 PUSH2 0x1EF PUSH0 CODECOPY PUSH0 RETURN INVALID PUSH1 0x80 PUSH1 0x40 MSTORE CALLVALUE DUP1 ISZERO PUSH2 0xF JUMPI PUSH0 DUP1 REVERT JUMPDEST POP PUSH1 0x4 CALLDATASIZE LT PUSH2 0xB1 JUMPI PUSH0 CALLDATALOAD PUSH1 0xE0 SHR DUP1 PUSH4 0x39509351 GT PUSH2 0x6E JUMPI DUP1 PUSH4 0x39509351 EQ PUSH2 0x15E JUMPI DUP1 PUSH4 0x70A08231 EQ PUSH2 0x171 JUMPI DUP1 PUSH4 0x95D89B41 EQ PUSH2 0x199 JUMPI DUP1 PUSH4 0xA457C2D7 EQ PUSH2 0x1A1 JUMPI DUP1 PUSH4 0xA9059CBB EQ PUSH2 0x1B4 JUMPI DUP1 PUSH4 0xDD62ED3E EQ PUSH2 0x1C7 JUMPI PUSH0 DUP1 REVERT JUMPDEST DUP1 PUSH4 0x6FDDE03 EQ PUSH2 0xB5 JUMPI DUP1 PUSH4 0x95EA7B3 EQ PUSH2 0xD3 JUMPI DUP1 PUSH4 0x18160DDD EQ PUSH2 0xF6 JUMPI DUP1 PUSH4 0x23B872DD EQ PUSH2 0x10D JUMPI DUP1 PUSH4 0x27E235E3 EQ PUSH2 0x120 JUMPI DUP1 PUSH4 0x313CE567 EQ PUSH2 0x13F JUMPI JUMPDEST PUSH0 DUP1 REVERT JUMPDEST PUSH2 0xBD PUSH2 0x1F1 JUMP JUMPDEST PUSH1 0x40 MLOAD PUSH2 0xCA SWAP2 SWAP1 PUSH2 0x807 JUMP JUMPDEST PUSH1 0x40 MLOAD DUP1 SWAP2 SUB SWAP1 RETURN JUMPDEST PUSH2 0xE6 PUSH2 0xE1 CALLDATASIZE PUSH1 0x4 PUSH2 0x857 JUMP JUMPDEST PUSH2 0x27D JUMP JUMPDEST PUSH1 0x40 MLOAD SWAP1 ISZERO ISZERO DUP2 MSTORE PUSH1 0x20 ADD PUSH2 0xCA JUMP JUMPDEST PUSH2 0xFF PUSH1 0x2 SLOAD DUP2 JUMP JUMPDEST PUSH1 0x40 MLOAD SWAP1 DUP2 MSTORE PUSH1 0x20 ADD PUSH2 0xCA JUMP JUMPDEST PUSH2 0xE6 PUSH2 0x11B CALLDATASIZE PUSH1 0x4 PUSH2 0x87F JUMP JUMPDEST PUSH2 0x2E9 JUMP JUMPDEST PUSH2 0xFF PUSH2 0x12E CALLDATASIZE PUSH1 0x4 PUSH2 0x8B8 JUMP JUMPDEST PUSH0 PUSH1 0x20 DUP2 SWAP1 MSTORE SWAP1 DUP2 MSTORE PUSH1 0x40 SWAP1 KECCAK256 SLOAD DUP2 JUMP JUMPDEST PUSH1 0x5 SLOAD PUSH2 0x14C SWAP1 PUSH1 0xFF AND DUP2 JUMP JUMPDEST PUSH1 0x40 MLOAD PUSH1 0xFF SWAP1 SWAP2 AND DUP2 MSTORE PUSH1 0x20 ADD PUSH2 0xCA JUMP JUMPDEST PUSH2 0xE6 PUSH2 0x16C CALLDATASIZE PUSH1 0x4 PUSH2 0x857 JUMP JUMPDEST PUSH2 0x532 JUMP JUMPDEST PUSH2 0xFF PUSH2 0x17F CALLDATASIZE PUSH1 0x4 PUSH2 0x8B8 JUMP JUMPDEST PUSH1 0x1 PUSH1 0x1 PUSH1 0xA0 SHL SUB AND PUSH0 SWAP1 DUP2 MSTORE PUSH1 0x20 DUP2 SWAP1 MSTORE PUSH1 0x40 SWAP1 KECCAK256 SLOAD SWAP1 JUMP JUMPDEST PUSH2 0xBD PUSH2 0x5C1 JUMP JUMPDEST PUSH2 0xE6 PUSH2 0x1AF CALLDATASIZE PUSH1 0x4 PUSH2 0x857 JUMP JUMPDEST PUSH2 0x5CE JUMP JUMPDEST PUSH2 0xE6 PUSH2 0x1C2 CALLDATASIZE PUSH1 0x4 PUSH2 0x857 JUMP JUMPDEST PUSH2 0x6DB JUMP JUMPDEST PUSH2 0xFF PUSH2 0x1D5 CALLDATASIZE PUSH1 0x4 PUSH2 0x8D8 JUMP JUMPDEST PUSH1 0x1 PUSH1 0x20 SWAP1 DUP2 MSTORE PUSH0 SWAP3 DUP4 MSTORE PUSH1 0x40 DUP1 DUP5 KECCAK256 SWAP1 SWAP2 MSTORE SWAP1 DUP3 MSTORE SWAP1 KECCAK256 SLOAD DUP2 JUMP JUMPDEST PUSH1 0x3 DUP1 SLOAD PUSH2 0x1FE SWAP1 PUSH2 0x909 JUMP JUMPDEST DUP1 PUSH1 0x1F ADD PUSH1 0x20 DUP1 SWAP2 DIV MUL PUSH1 0x20 ADD PUSH1 0x40 MLOAD SWAP1 DUP2 ADD PUSH1 0x40 MSTORE DUP1 SWAP3 SWAP2 SWAP1 DUP2 DUP2 MSTORE PUSH1 0x20 ADD DUP3 DUP1 SLOAD PUSH2 0x22A SWAP1 PUSH2 0x909 JUMP JUMPDEST DUP1 ISZERO PUSH2 0x275 JUMPI DUP1 PUSH1 0x1F LT PUSH2 0x24C JUMPI PUSH2 0x100 DUP1 DUP4 SLOAD DIV MUL DUP4 MSTORE SWAP2 PUSH1 0x20 ADD SWAP2 PUSH2 0x275 JUMP JUMPDEST DUP3 ADD SWAP2 SWAP1 PUSH0 MSTORE PUSH1 0x20 PUSH0 KECCAK256 SWAP1 JUMPDEST DUP2 SLOAD DUP2 MSTORE SWAP1 PUSH1 0x1 ADD SWAP1 PUSH1 0x20 ADD DUP1 DUP4 GT PUSH2 0x258 JUMPI DUP3 SWAP1 SUB PUSH1 0x1F AND DUP3 ADD SWAP2 JUMPDEST POP POP POP POP POP DUP2 JUMP JUMPDEST CALLER PUSH0 DUP2 DUP2 MSTORE PUSH1 0x1 PUSH1 0x20 SWAP1 DUP2 MSTORE PUSH1 0x40 DUP1 DUP4 KECCAK256 PUSH1 0x1 PUSH1 0x1 PUSH1 0xA0 SHL SUB DUP8 AND DUP1 DUP6 MSTORE SWAP3 MSTORE DUP1 DUP4 KECCAK256 DUP6 SWAP1 SSTORE MLOAD SWAP2 SWAP3 SWAP1 SWAP2 PUSH32 0x8C5BE1E5EBEC7D5BD14F71427D1E84F3DD0314C0F7B2291E5B200AC8C7C3B925 SWAP1 PUSH2 0x2D7 SWAP1 DUP7 DUP2 MSTORE PUSH1 0x20 ADD SWAP1 JUMP JUMPDEST PUSH1 0x40 MLOAD DUP1 SWAP2 SUB SWAP1 LOG3 POP PUSH1 0x1 JUMPDEST SWAP3 SWAP2 POP POP JUMP JUMPDEST PUSH0 PUSH1 0x1 PUSH1 0x1 PUSH1 0xA0 SHL SUB DUP5 AND PUSH2 0x336 JUMPI PUSH1 0x40 MLOAD PUSH3 0x461BCD PUSH1 0xE5 SHL DUP2 MSTORE PUSH1 0x20 PUSH1 0x4 DUP3 ADD MSTORE PUSH1 0xE PUSH1 0x24 DUP3 ADD MSTORE PUSH14 0x24B73B30B634B21039B2B73232B9 PUSH1 0x91 SHL PUSH1 0x44 DUP3 ADD MSTORE PUSH1 0x64 ADD JUMPDEST PUSH1 0x40 MLOAD DUP1 SWAP2 SUB SWAP1 REVERT JUMPDEST PUSH1 0x1 PUSH1 0x1 PUSH1 0xA0 SHL SUB DUP4 AND PUSH2 0x380 JUMPI PUSH1 0x40 MLOAD PUSH3 0x461BCD PUSH1 0xE5 SHL DUP2 MSTORE PUSH1 0x20 PUSH1 0x4 DUP3 ADD MSTORE PUSH1 0x11 PUSH1 0x24 DUP3 ADD MSTORE PUSH17 0x125B9D985B1A59081C9958DA5C1A595B9D PUSH1 0x7A SHL PUSH1 0x44 DUP3 ADD MSTORE PUSH1 0x64 ADD PUSH2 0x32D JUMP JUMPDEST DUP2 PUSH2 0x39F DUP6 PUSH1 0x1 PUSH1 0x1 PUSH1 0xA0 SHL SUB AND PUSH0 SWAP1 DUP2 MSTORE PUSH1 0x20 DUP2 SWAP1 MSTORE PUSH1 0x40 SWAP1 KECCAK256 SLOAD SWAP1 JUMP JUMPDEST LT ISZERO PUSH2 0x3E4 JUMPI PUSH1 0x40 MLOAD PUSH3 0x461BCD PUSH1 0xE5 SHL DUP2 MSTORE PUSH1 0x20 PUSH1 0x4 DUP3 ADD MSTORE PUSH1 0x14 PUSH1 0x24 DUP3 ADD MSTORE PUSH20 0x496E73756666696369656E742062616C616E6365 PUSH1 0x60 SHL PUSH1 0x44 DUP3 ADD MSTORE PUSH1 0x64 ADD PUSH2 0x32D JUMP JUMPDEST PUSH1 0x1 PUSH1 0x1 PUSH1 0xA0 SHL SUB DUP5 AND PUSH0 SWAP1 DUP2 MSTORE PUSH1 0x1 PUSH1 0x20 SWAP1 DUP2 MSTORE PUSH1 0x40 DUP1 DUP4 KECCAK256 CALLER DUP5 MSTORE SWAP1 SWAP2 MSTORE SWAP1 KECCAK256 SLOAD DUP3 GT ISZERO PUSH2 0x44A JUMPI PUSH1 0x40 MLOAD PUSH3 0x461BCD PUSH1 0xE5 SHL DUP2 MSTORE PUSH1 0x20 PUSH1 0x4 DUP3 ADD MSTORE PUSH1 0x11 PUSH1 0x24 DUP3 ADD MSTORE PUSH17 0x416C6C6F77616E636520746F6F206C6F77 PUSH1 0x78 SHL PUSH1 0x44 DUP3 ADD MSTORE PUSH1 0x64 ADD PUSH2 0x32D JUMP JUMPDEST PUSH1 0x1 PUSH1 0x1 PUSH1 0xA0 SHL SUB DUP4 AND PUSH0 SWAP1 DUP2 MSTORE PUSH1 0x20 DUP2 SWAP1 MSTORE PUSH1 0x40 DUP2 KECCAK256 DUP1 SLOAD DUP5 SWAP3 SWAP1 PUSH2 0x471 SWAP1 DUP5 SWAP1 PUSH2 0x955 JUMP JUMPDEST SWAP1 SWAP2 SSTORE POP POP PUSH1 0x1 PUSH1 0x1 PUSH1 0xA0 SHL SUB DUP5 AND PUSH0 SWAP1 DUP2 MSTORE PUSH1 0x20 DUP2 SWAP1 MSTORE PUSH1 0x40 DUP2 KECCAK256 DUP1 SLOAD DUP5 SWAP3 SWAP1 PUSH2 0x49D SWAP1 DUP5 SWAP1 PUSH2 0x968 JUMP JUMPDEST SWAP1 SWAP2 SSTORE POP POP PUSH1 0x1 PUSH1 0x1 PUSH1 0xA0 SHL SUB DUP5 AND PUSH0 SWAP1 DUP2 MSTORE PUSH1 0x1 PUSH1 0x20 SWAP1 DUP2 MSTORE PUSH1 0x40 DUP1 DUP4 KECCAK256 CALLER DUP5 MSTORE SWAP1 SWAP2 MSTORE DUP2 KECCAK256 DUP1 SLOAD DUP5 SWAP3 SWAP1 PUSH2 0x4D4 SWAP1 DUP5 SWAP1 PUSH2 0x968 JUMP JUMPDEST SWAP3 POP POP DUP2 SWAP1 SSTORE POP DUP3 PUSH1 0x1 PUSH1 0x1 PUSH1 0xA0 SHL SUB AND DUP5 PUSH1 0x1 PUSH1 0x1 PUSH1 0xA0 SHL SUB AND PUSH32 0xDDF252AD1BE2C89B69C2B068FC378DAA952BA7F163C4A11628F55A4DF523B3EF DUP5 PUSH1 0x40 MLOAD PUSH2 0x520 SWAP2 DUP2 MSTORE PUSH1 0x20 ADD SWAP1 JUMP JUMPDEST PUSH1 0x40 MLOAD DUP1 SWAP2 SUB SWAP1 LOG3 POP PUSH1 0x1 SWAP4 SWAP3 POP POP POP JUMP JUMPDEST CALLER PUSH0 SWAP1 DUP2 MSTORE PUSH1 0x1 PUSH1 0x20 SWAP1 DUP2 MSTORE PUSH1 0x40 DUP1 DUP4 KECCAK256 PUSH1 0x1 PUSH1 0x1 PUSH1 0xA0 SHL SUB DUP7 AND DUP5 MSTORE SWAP1 SWAP2 MSTORE DUP2 KECCAK256 DUP1 SLOAD DUP4 SWAP2 SWAP1 DUP4 SWAP1 PUSH2 0x566 SWAP1 DUP5 SWAP1 PUSH2 0x955 JUMP JUMPDEST SWAP1 SWAP2 SSTORE POP POP CALLER PUSH0 DUP2 DUP2 MSTORE PUSH1 0x1 PUSH1 0x20 SWAP1 DUP2 MSTORE PUSH1 0x40 DUP1 DUP4 KECCAK256 PUSH1 0x1 PUSH1 0x1 PUSH1 0xA0 SHL SUB DUP9 AND DUP1 DUP6 MSTORE SWAP1 DUP4 MSTORE SWAP3 DUP2 SWAP1 KECCAK256 SLOAD SWAP1 MLOAD SWAP1 DUP2 MSTORE SWAP2 SWAP3 SWAP2 PUSH32 0x8C5BE1E5EBEC7D5BD14F71427D1E84F3DD0314C0F7B2291E5B200AC8C7C3B925 SWAP2 ADD PUSH2 0x2D7 JUMP JUMPDEST PUSH1 0x4 DUP1 SLOAD PUSH2 0x1FE SWAP1 PUSH2 0x909 JUMP JUMPDEST CALLER PUSH0 SWAP1 DUP2 MSTORE PUSH1 0x1 PUSH1 0x20 SWAP1 DUP2 MSTORE PUSH1 0x40 DUP1 DUP4 KECCAK256 PUSH1 0x1 PUSH1 0x1 PUSH1 0xA0 SHL SUB DUP7 AND DUP5 MSTORE SWAP1 SWAP2 MSTORE DUP2 KECCAK256 SLOAD DUP3 DUP2 LT ISZERO PUSH2 0x641 JUMPI PUSH1 0x40 MLOAD PUSH3 0x461BCD PUSH1 0xE5 SHL DUP2 MSTORE PUSH1 0x20 PUSH1 0x4 DUP3 ADD MSTORE PUSH1 0x1E PUSH1 0x24 DUP3 ADD MSTORE PUSH32 0x44656372656173656420616C6C6F77616E63652062656C6F77207A65726F0000 PUSH1 0x44 DUP3 ADD MSTORE PUSH1 0x64 ADD PUSH2 0x32D JUMP JUMPDEST CALLER PUSH0 SWAP1 DUP2 MSTORE PUSH1 0x1 PUSH1 0x20 SWAP1 DUP2 MSTORE PUSH1 0x40 DUP1 DUP4 KECCAK256 PUSH1 0x1 PUSH1 0x1 PUSH1 0xA0 SHL SUB DUP9 AND DUP5 MSTORE SWAP1 SWAP2 MSTORE DUP2 KECCAK256 DUP1 SLOAD DUP6 SWAP3 SWAP1 PUSH2 0x673 SWAP1 DUP5 SWAP1 PUSH2 0x968 JUMP JUMPDEST SWAP1 SWAP2 SSTORE POP POP CALLER PUSH0 DUP2 DUP2 MSTORE PUSH1 0x1 PUSH1 0x20 SWAP1 DUP2 MSTORE PUSH1 0x40 DUP1 DUP4 KECCAK256 PUSH1 0x1 PUSH1 0x1 PUSH1 0xA0 SHL SUB DUP10 AND DUP1 DUP6 MSTORE SWAP1 DUP4 MSTORE SWAP3 DUP2 SWAP1 KECCAK256 SLOAD SWAP1 MLOAD SWAP1 DUP2 MSTORE SWAP2 SWAP3 SWAP2 PUSH32 0x8C5BE1E5EBEC7D5BD14F71427D1E84F3DD0314C0F7B2291E5B200AC8C7C3B925 SWAP2 ADD PUSH1 0x40 MLOAD DUP1 SWAP2 SUB SWAP1 LOG3 POP PUSH1 0x1 SWAP4 SWAP3 POP POP POP JUMP JUMPDEST PUSH0 PUSH1 0x1 PUSH1 0x1 PUSH1 0xA0 SHL SUB DUP4 AND PUSH2 0x726 JUMPI PUSH1 0x40 MLOAD PUSH3 0x461BCD PUSH1 0xE5 SHL DUP2 MSTORE PUSH1 0x20 PUSH1 0x4 DUP3 ADD MSTORE PUSH1 0x11 PUSH1 0x24 DUP3 ADD MSTORE PUSH17 0x125B9D985B1A59081C9958DA5C1A595B9D PUSH1 0x7A SHL PUSH1 0x44 DUP3 ADD MSTORE PUSH1 0x64 ADD PUSH2 0x32D JUMP JUMPDEST CALLER PUSH0 SWAP1 DUP2 MSTORE PUSH1 0x20 DUP2 SWAP1 MSTORE PUSH1 0x40 SWAP1 KECCAK256 SLOAD DUP3 GT ISZERO PUSH2 0x77B JUMPI PUSH1 0x40 MLOAD PUSH3 0x461BCD PUSH1 0xE5 SHL DUP2 MSTORE PUSH1 0x20 PUSH1 0x4 DUP3 ADD MSTORE PUSH1 0x14 PUSH1 0x24 DUP3 ADD MSTORE PUSH20 0x496E73756666696369656E742062616C616E6365 PUSH1 0x60 SHL PUSH1 0x44 DUP3 ADD MSTORE PUSH1 0x64 ADD PUSH2 0x32D JUMP JUMPDEST PUSH1 0x1 PUSH1 0x1 PUSH1 0xA0 SHL SUB DUP4 AND PUSH0 SWAP1 DUP2 MSTORE PUSH1 0x20 DUP2 SWAP1 MSTORE PUSH1 0x40 DUP2 KECCAK256 DUP1 SLOAD DUP5 SWAP3 SWAP1 PUSH2 0x7A2 SWAP1 DUP5 SWAP1 PUSH2 0x955 JUMP JUMPDEST SWAP1 SWAP2 SSTORE POP POP CALLER PUSH0 SWAP1 DUP2 MSTORE PUSH1 0x20 DUP2 SWAP1 MSTORE PUSH1 0x40 DUP2 KECCAK256 DUP1 SLOAD DUP5 SWAP3 SWAP1 PUSH2 0x7C5 SWAP1 DUP5 SWAP1 PUSH2 0x968 JUMP JUMPDEST SWAP1 SWAP2 SSTORE POP POP PUSH1 0x40 MLOAD DUP3 DUP2 MSTORE PUSH1 0x1 PUSH1 0x1 PUSH1 0xA0 SHL SUB DUP5 AND SWAP1 CALLER SWAP1 PUSH32 0xDDF252AD1BE2C89B69C2B068FC378DAA952BA7F163C4A11628F55A4DF523B3EF SWAP1 PUSH1 0x20 ADD PUSH2 0x2D7 JUMP JUMPDEST PUSH1 0x20 DUP2 MSTORE PUSH0 DUP3 MLOAD DUP1 PUSH1 0x20 DUP5 ADD MSTORE DUP1 PUSH1 0x20 DUP6 ADD PUSH1 0x40 DUP6 ADD MCOPY PUSH0 PUSH1 0x40 DUP3 DUP6 ADD ADD MSTORE PUSH1 0x40 PUSH1 0x1F NOT PUSH1 0x1F DUP4 ADD AND DUP5 ADD ADD SWAP2 POP POP SWAP3 SWAP2 POP POP JUMP JUMPDEST DUP1 CALLDATALOAD PUSH1 0x1 PUSH1 0x1 PUSH1 0xA0 SHL SUB DUP2 AND DUP2 EQ PUSH2 0x852 JUMPI PUSH0 DUP1 REVERT JUMPDEST SWAP2 SWAP1 POP JUMP JUMPDEST PUSH0 DUP1 PUSH1 0x40 DUP4 DUP6 SUB SLT ISZERO PUSH2 0x868 JUMPI PUSH0 DUP1 REVERT JUMPDEST PUSH2 0x871 DUP4 PUSH2 0x83C JUMP JUMPDEST SWAP5 PUSH1 0x20 SWAP4 SWAP1 SWAP4 ADD CALLDATALOAD SWAP4 POP POP POP JUMP JUMPDEST PUSH0 DUP1 PUSH0 PUSH1 0x60 DUP5 DUP7 SUB SLT ISZERO PUSH2 0x891 JUMPI PUSH0 DUP1 REVERT JUMPDEST PUSH2 0x89A DUP5 PUSH2 0x83C JUMP JUMPDEST SWAP3 POP PUSH2 0x8A8 PUSH1 0x20 DUP6 ADD PUSH2 0x83C JUMP JUMPDEST SWAP2 POP PUSH1 0x40 DUP5 ADD CALLDATALOAD SWAP1 POP SWAP3 POP SWAP3 POP SWAP3 JUMP JUMPDEST PUSH0 PUSH1 0x20 DUP3 DUP5 SUB SLT ISZERO PUSH2 0x8C8 JUMPI PUSH0 DUP1 REVERT JUMPDEST PUSH2 0x8D1 DUP3 PUSH2 0x83C JUMP JUMPDEST SWAP4 SWAP3 POP POP POP JUMP JUMPDEST PUSH0 DUP1 PUSH1 0x40 DUP4 DUP6 SUB SLT ISZERO PUSH2 0x8E9 JUMPI PUSH0 DUP1 REVERT JUMPDEST PUSH2 0x8F2 DUP4 PUSH2 0x83C JUMP JUMPDEST SWAP2 POP PUSH2 0x900 PUSH1 0x20 DUP5 ADD PUSH2 0x83C JUMP JUMPDEST SWAP1 POP SWAP3 POP SWAP3 SWAP1 POP JUMP JUMPDEST PUSH1 0x1 DUP2 DUP2 SHR SWAP1 DUP3 AND DUP1 PUSH2 0x91D JUMPI PUSH1 0x7F DUP3 AND SWAP2 POP JUMPDEST PUSH1 0x20 DUP3 LT DUP2 SUB PUSH2 0x93B JUMPI PUSH4 0x4E487B71 PUSH1 0xE0 SHL PUSH0 MSTORE PUSH1 0x22 PUSH1 0x4 MSTORE PUSH1 0x24 PUSH0 REVERT JUMPDEST POP SWAP2 SWAP1 POP JUMP JUMPDEST PUSH4 0x4E487B71 PUSH1 0xE0 SHL PUSH0 MSTORE PUSH1 0x11 PUSH1 0x4 MSTORE PUSH1 0x24 PUSH0 REVERT JUMPDEST DUP1 DUP3 ADD DUP1 DUP3 GT ISZERO PUSH2 0x2E3 JUMPI PUSH2 0x2E3 PUSH2 0x941 JUMP JUMPDEST DUP2 DUP2 SUB DUP2 DUP2 GT ISZERO PUSH2 0x2E3 JUMPI PUSH2 0x2E3 PUSH2 0x941 JUMP INVALID LOG2 PUSH5 0x6970667358 0x22 SLT KECCAK256 CALLDATALOAD SSTORE 0xDD 0xC5 DUP4 0xEA 0x4D ISZERO 0xCC PUSH28 0x6F2732D22415BF82076B80761C44966A32B4CF93380E64736F6C6343 STOP ADDMOD NOT STOP CALLER "
				},
				"gasEstimates": {
					"creation": {
						"codeDepositCost": "496200",
						"executionCost": "infinite",
						"totalCost": "infinite"
					},
					"external": {
						"allowance(address,address)": "infinite",
						"approve(address,uint256)": "24520",
						"balanceOf(address)": "2559",
						"balances(address)": "2608",
						"decimals()": "2423",
						"decreaseAllowance(address,uint256)": "31289",
						"increaseAllowance(address,uint256)": "infinite",
						"name()": "infinite",
						"symbol()": "infinite",
						"totalSupply()": "2339",
						"transfer(address,uint256)": "infinite",
						"transferFrom(address,address,uint256)": "infinite"
					}
				},
				"methodIdentifiers": {
					"allowance(address,address)": "dd62ed3e",
					"approve(address,uint256)": "095ea7b3",
					"balanceOf(address)": "70a08231",
					"balances(address)": "27e235e3",
					"decimals()": "313ce567",
					"decreaseAllowance(address,uint256)": "a457c2d7",
					"increaseAllowance(address,uint256)": "39509351",
					"name()": "06fdde03",
					"symbol()": "95d89b41",
					"totalSupply()": "18160ddd",
					"transfer(address,uint256)": "a9059cbb",
					"transferFrom(address,address,uint256)": "23b872dd"
				}
			},
			"storageLayout": {
				"storage": [
					{
						"astId": 5,
						"contract": "contracts/token.sol:Token",
						"label": "balances",
						"offset": 0,
						"slot": "0",
						"type": "t_mapping(t_address,t_uint256)"
					},
					{
						"astId": 11,
						"contract": "contracts/token.sol:Token",
						"label": "allowance",
						"offset": 0,
						"slot": "1",
						"type": "t_mapping(t_address,t_mapping(t_address,t_uint256))"
					},
					{
						"astId": 18,
						"contract": "contracts/token.sol:Token",
						"label": "totalSupply",
						"offset": 0,
						"slot": "2",
						"type": "t_uint256"
					},
					{
						"astId": 21,
						"contract": "contracts/token.sol:Token",
						"label": "name",
						"offset": 0,
						"slot": "3",
						"type": "t_string_storage"
					},
					{
						"astId": 24,
						"contract": "contracts/token.sol:Token",
						"label": "symbol",
						"offset": 0,
						"slot": "4",
						"type": "t_string_storage"
					},
					{
						"astId": 27,
						"contract": "contracts/token.sol:Token",
						"label": "decimals",
						"offset": 0,
						"slot": "5",
						"type": "t_uint8"
					}
				],
				"types": {
					"t_address": {
						"encoding": "inplace",
						"label": "address",
						"numberOfBytes": "20"
					},
					"t_mapping(t_address,t_mapping(t_address,t_uint256))": {
						"encoding": "mapping",
						"key": "t_address",
						"label": "mapping(address => mapping(address => uint256))",
						"numberOfBytes": "32",
						"value": "t_mapping(t_address,t_uint256)"
					},
					"t_mapping(t_address,t_uint256)": {
						"encoding": "mapping",
						"key": "t_address",
						"label": "mapping(address => uint256)",
						"numberOfBytes": "32",
						"value": "t_uint256"
					},
					"t_string_storage": {
						"encoding": "bytes",
						"label": "string",
						"numberOfBytes": "32"
					},
					"t_uint256": {
						"encoding": "inplace",
						"label": "uint256",
						"numberOfBytes": "32"
					},
					"t_uint8": {
						"encoding": "inplace",
						"label": "uint8",
						"numberOfBytes": "1"
					}
				}
			},
			"userdoc": {
				"kind": "user",
				"methods": {},
				"version": 1
			}
		}
	}
}